S31508000000180B002009010008110100081301000857
S315080000101501000817010008190100080000000072
S315080000200000000000000000000000001B0100089E
S315080000301D010008000000001F010008C113000888
S3150800004023010008230100082301000823010008F2
S315080000502301000823010008950A0008910B0008EF
S31508000060B90B0008E10B0008090C00082301000879
S3150800007023010008230100082301000823010008C2
S3150800008023010008230100082301000823010008B2
S31508000090230100082301000823010008310C000889
S315080000A023010008D51400082301000823010008CD
S315080000B00515000831150008611500082301000818
S315080000C02301000823010008230100082301000872
S315080000D023010008311C0008411C0008511C0008B7
S315080000E0BD0A00082301000823010008DFF814D020
S315080000F000F0D6FB00F06CF80048004755330008BE
S3150800010000F001FB180B0020064880470648004708
S31508000110FEE7FEE7FEE7FEE7FEE7FEE7FEE7FEE7A9
S31508000120FEE7FEE775140008ED0000082DE9F05F0C
S315080001300546002092469B46884606468146402448
S315080001401BE0284641464746224600F0B4FA534685
S315080001505A46C01A914110D311461846224600F055
S315080001609BFA2D1A67EB01084F462246012000210B
S3150800017000F092FA17EB00094E41201EA4F1010483
S31508000180DFDC484631462A464346BDE8F09F10B5AF
S31508000190431A934209D28318881803E010F8011D00
S315080001A003F8011D521EF9D210BD40EA01039B0750
S315080001B003D009E008C9121F08C0042AFAD203E0CE
S315080001C011F8013B00F8013B521EF9D210BD0000A0
S315080001D070B5054C054D03E0206820448047241D72
S315080001E0AC42F9D170BD0000E4460008F4460008A8
S315080001F02DE9F041074615460E46102002F036FD59
S3150800020004000AD06760C4E9026500F077FA01685D
S31508000210216004600020BDE8F0810120FBE72DE99C
S31508000220FE4F804681EA0300C00F0C46009021F07D
S31508000230004123F00045B8EB0200A94105D240462B
S31508000240214690461C460B46024623F000401043C2
S3150800025047D0270DC7F30A00C3F30A510290401A84
S31508000260019040286BDAC3F3130040F4801B009812
S31508000270924620B10023D2EB030A63EB0B0B0198DD
S315080002805946C0F14002504600F006FA06460D46A9
S3150800029050465946019A00F01EFA10EB08006141D3
S315080002A0002487EA115284EAE7731A4340D0009A79
S315080002B062B3019A012A4FEA075215DC001B61EB6B
S315080002C002014FF0004202EA0752CDE90042001C43
S315080002D041F5801132462B4600F07CFA03B0BDE8A2
S315080002E0F08F40462146F9E7001B61EB0201001C2E
S315080002F041F5801300185B412018A2F5001747EB5B
S31508000300030140EAD570B6196D4111E06D084FEA50
S31508000310360645EAC0754FEA0752001B61EB020133
S31508000320001C41F5801149084FEA30000019514177
S3150800033032462B4603B0BDE8F04F00F03CBA0098B1
S31508000340012240000023D0EB020263EBE073009821
S3150800035021464FEAE074B8EB000061EB0401E9E7D7
S3150800036083F000435BE781F0004158E72DE9FE4F33
S3150800037081EA030404F0004421F0004100944FF0A0
S31508000380000B23F0004350EA01045ED052EA03044E
S315080003905BD0C3F30A54C1F30A552C44A4F2F334D0
S315080003A00194A0FB0254C1F3130141F48011C3F375
S315080003B0130343F4801301FB024400FB034E840A33
S315080003C0970A44EA815447EA8357A4FB07680295CB
S315080003D08D0A05FB07854FEA932C04FB0C54270569
S315080003E0029D4FEA065847EA1637B5EB08056EEB45
S315080003F0070C870E920E47EA811742EA8312A7FB7B
S315080004000201B6EB0B0164EB00042B0D43EA0C3337
S315080004105E1844EB1C50DA465146E7FB0201C5F369
S3150800042013044FEA0B3343EA14534FEA0432019C90
S3150800043043EA0603A4F10C040294009CCDE900B437
S3150800044000F0C8F903B0BDE8F08F00200146F9E7CF
S315080004502DE9F04D81EA030404F0004B21F0004534
S3150800046014464FF0000A23F0004150EA050220D056
S3150800047054EA01021DD0C5F30A570246C5F3130311
S31508000480C1F31300C1F30A5640F4801543F48013F0
S31508000490A7EB0608101BD64608F2FD3873EB0500D5
S315080004A002D308F1010801E092185B41B8F1000F88
S315080004B003DA00200146BDE8F08D00204FF48011D4
S315080004C0064684460EE0171B73EB050705D3121B79
S315080004D063EB050306434CEA010C49084FEA300072
S315080004E092185B4150EA0107EDD152EA030012D097
S315080004F082EA040083EA0501084305D0101BAB41D4
S3150800050006D20122002306E000224FF0004302E053
S315080005106FF0010253101AEB06004CEB085110EB72
S315080005200A0041EB0B01BDE8F04D00F044B9C10FDC
S3150800053080EAE0700844CA079623002100F00DB946
S315080005400EB5C10F80EAE0700844CA07002140F2E0
S3150800055033438DE80E000A460B4600F03BF903B01C
S3150800056000BD3EB5CA17CB0F002450405140C018F5
S315080005706141DA0740F233430094CDE9012322466C
S31508000580234600F027F903B030BD70B5C1F30A520F
S3150800059001F000450024C1F3130140F2FF3341F492
S315080005A080119A4201DA002070BD40F233439A4224
S315080005B0A2F2334203DC524200F07DF800E090409C
S315080005C02C43F1D0404270BD70B5C1F30A5201F018
S315080005D000450024C1F3130140F2FF3341F48011B2
S315080005E09A4202DA0020014670BD40F233439A422D
S315080005F0A2F2334203DC524200F05DF801E000F05B
S315080006004BF82C43F0D00023D0EB030063EB010139
S3150800061070BD00F0004230F000400AD0C10D01F56F
S315080006206071C0F3160042EA0151C208400711433F
S31508000630704700200146704730B5041E71F100046A
S3150800064004DB4FF00044404264EB0101141E73F1D1
S31508000650000405DB1C464FF00043524263EB0403DB
S315080006608B4208BF824230BD30B5041E71F10004CA
S3150800067004DB4FF00044404264EB0101141E73F1A1
S31508000680000405DB1C464FF00043524263EB0403AB
S31508000690994208BF904230BD202A04DB203A00FA6E
S315080006A002F1002070479140C2F1200320FA03F3BB
S315080006B0194390407047202A04DB203A21FA02F0B9
S315080006C00021704721FA02F3D040C2F1200291407E
S315080006D0084319467047202A06DBCB17203A41FA09
S315080006E002F043EAE07306E041FA02F3D040C2F1B1
S315080006F02002914008431946704700000048704799
S31508000700C400002070472DE9F0410646FFF7F6FFC2
S315080007108046454613E016B1E068B0420ED120681F
S315080007202860D4E90101D8F800708847204602F00D
S3150800073019FAD8F80000B842EBD100E025462C6833
S31508000740002CE8D1BDE8F0810029A8BF7047401CFD
S31508000750490008BF20F00100704710B4B0FA80FCC9
S3150800076000FA0CF050EA010404BF10BC704749B106
S31508000770CCF1200421FA04F411FA0CF118BF012176
S3150800078021430843A3EB0C01CB1D4FEA00614FEA56
S31508000790102042BF002010BC704700EBC350104425
S315080007A00029A4BF10BC7047401C490008BF20F0B0
S315080007B0010010BC704710B5141E73F1000408DA66
S315080007C0401C41F1000192185B411A4301D120F007
S315080007D0010010BD2DE9F04D92469B4611B1B1FAC4
S315080007E081F202E0B0FA80F220329046FFF754FF19
S315080007F004460F4640EA0A0041EA0B0153465A46A8
S31508000800084313D0114653EA010019D0C8F1400233
S315080008105046FFF750FF05460E4650465946424693
S31508000820FFF73AFF084305D0012004E02046394681
S31508000830BDE8F08D0020054346EAE0762C433743B1
S315080008400A986305E40AA0EB08000022FD0A44EAB8
S3150800085047540A3002D500200146E9E70105101978
S315080008606941DDE9084500196941BDE8F04DA2E78F
S3150800087070B521F0004303430CD0C1F30A55002498
S31508000880D5EB040564EB0403D617AD1AB34102DBB6
S315080008900020014670BD201841EB025170BD0000D2
S315080008A0064C074D06E0E06840F0010394E80700AF
S315080008B098471034AC42F6D3FFF71CFCC446000830
S315080008C0E446000870472DE9F04D00231A461B1A26
S315080008D08A4103DB00200146BDE8F08DC1F30A52C8
S315080008E0C1F3130141F480154FF0000BD10702D173
S315080008F000186D41521E0027044640F2FF11384683
S3150800090001EB620A3E468046024600204FF48011FB
S31508000910FFF7D1FEC2197141BB1846EB0100B4EBD3
S31508000920030C75EB000C04D3E41A65EB00051746B7
S315080009300E46241908F101006D4180463428E3DD8E
S31508000940F91946EB0600091BA84103D24FF0FF32FE
S31508000950134601E0002213461BEB070046EB0A513B
S31508000960BDE8F04DFFF727BF10B5044628480078C4
S3150800097060B9002004E0FF21264A1154411CC8B280
S315080009801228F8DB0121224A117000BF24B3012C7A
S3150800099022D0022C20D0032C1ED0042C1CD0052CCF
S315080009A01AD0062C18D0072C16D0082C14D0092CCF
S315080009B012D00A2C10D00B2C0ED00C2C0CD00D2CCF
S315080009C00AD00E2C08D00F2C06D0102C04D0112CCF
S315080009D002D04FF0FF3010BD204600F01FF8401C33
S315080009E010B16FF00100F6E70B480078122802DB19
S315080009F06FF00200EFE707480749097844540648AC
S31508000A000078401C0449087008460078401EE2E752
S31508000A1001000020C8000020000000200246002136
S31508000A2007E00748405C904201D108467047481CD9
S31508000A30C1B2044800788142F3DB4FF0FF30F5E796
S31508000A40C80000200000002010B500F0C1FC1048C6
S31508000A5000684FF47A71B0FBF1F4601EB0F1807F44
S31508000A6000D30FE0601E4FF0E02148610F214FF0E0
S31508000A70FF3002F05FF800204FF0E0218861072080
S31508000A80086100BF0021481E02F054F810BD00009E
S31508000A909400002010B500BF012000F023F940B1F2
S31508000AA00548006810B1044908688047012000F02D
S31508000AB013F900BF10BD00000001002010B500BFEB
S31508000AC04FF4806000F00EF948B13048806A10B1E2
S31508000AD02E49886A80474FF4806000F0FDF800BF11
S31508000AE000BF4FF4006000F0FDF848B12748C06A1F
S31508000AF010B12649C86A80474FF4006000F0ECF848
S31508000B0000BF00BF4FF4805000F0ECF848B11F4812
S31508000B10006B10B11D49086B80474FF4805000F0F8
S31508000B20DBF800BF00BF4FF4005000F0DBF848B117
S31508000B301648406B10B11549486B80474FF4005072
S31508000B4000F0CAF800BF00BF4FF4804000F0CAF8B2
S31508000B5048B10E48806B10B10C49886B80474FF43A
S31508000B60804000F0B9F800BF00BF4FF4004000F025
S31508000B70B9F848B10548C06B10B10449C86B80473D
S31508000B804FF4004000F0A8F800BF10BD0001002097
S31508000B9010B500BF022000F0A5F840B1054840682E
S31508000BA010B1044948688047022000F095F800BF54
S31508000BB010BD00000001002010B500BF042000F0A1
S31508000BC091F840B10548806810B1044988688047A3
S31508000BD0042000F081F800BF10BD000000010020CD
S31508000BE010B500BF082000F07DF840B10548C06880
S31508000BF010B10449C8688047082000F06DF800BFA6
S31508000C0010BD00000001002010B500BF102000F044
S31508000C1069F840B10548006910B104490869804778
S31508000C20102000F059F800BF10BD00000001002098
S31508000C3010B500BF202000F055F840B1254840699E
S31508000C4010B1244948698047202000F045F800BFC4
S31508000C5000BF402000F046F840B11E48806910B138
S31508000C601C4988698047402000F036F800BF00BF5D
S31508000C70802000F037F840B11648C06910B1154910
S31508000C80C8698047802000F027F800BF00BF4FF4EE
S31508000C90807000F027F848B10E48006A10B10D4977
S31508000CA0086A80474FF4807000F016F800BF00BF4E
S31508000CB04FF4007000F016F848B10648406A10B1C3
S31508000CC00449486A80474FF4007000F005F800BFF1
S31508000CD010BD0000000100200149086070470000AF
S31508000CE014040140014600200022074B1B6803EA52
S31508000CF00102054B14331B680B4013B10AB10120DE
S31508000D0000E0002070470000000401402DE9F04192
S31508000D10024600250026002000230024002791F81B
S31508000D2003C00CF00F0591F803C00CF0100CBCF1D1
S31508000D30000F03D091F802C04CEA050591F800C0EF
S31508000D40BCF1000F31D0146800202BE04FF0010CE5
S31508000D500CFA00F3B1F800C00CEA03069E4220D153
S31508000D6083004FF00F0C0CFA03F7BC4305FA03FC9B
S31508000D704CEA040491F803C0BCF1280F06D14FF0E1
S31508000D80010C0CFA00FCC2F814C00AE091F803C082
S31508000D90BCF1480F05D14FF0010C0CFA00FCC2F863
S31508000DA010C0401C0828D1D31460B1F800C0BCF1AB
S31508000DB0FF0F34DD546800202EE000F1080C4FF0D8
S31508000DC0010808FA0CF3B1F800C00CEA03069E42C3
S31508000DD021D183004FF00F0C0CFA03F7BC4305FA38
S31508000DE003FC4CEA040491F803C0BCF1280F05D1B2
S31508000DF000F1080C08FA0CF8C2F8148091F803C040
S31508000E00BCF1480F07D100F1080C4FF0010808FAA9
S31508000E100CF8C2F81080401C0828CED35460BDE8F0
S31508000E20F08100002DE9F84305460F461646984618
S31508000E301F48854201D104241FE01E48854201D17E
S31508000E4008241AE01C48854201D1102415E01B48E5
S31508000E50854201D1202410E01948854201D1402459
S31508000E600BE01848854201D1802406E016488542E1
S31508000E7001D1841501E0BDE8F8831C2E01D0182E97
S31508000E8005D144F00100012100F0BCF803E001217E
S31508000E90204600F0B7F8ADF800708DF803608DF8BD
S31508000EA0028069462846FFF731FF00BFE3E70000E6
S31508000EB000080140000C01400010014000140140E8
S31508000EC000180140001C01400020014070B50021B7
S31508000ED000230F22C47804B3154C246804F4E06494
S31508000EE0C4F5E064210AC1F10403CA40447804FA4F
S31508000EF003F184781440214309010E4C0678A15564
S31508000F00047804F01F050124AC4005786D11AD0086
S31508000F1005F1E025C5F8004109E0047804F01F054D
S31508000F200124AC40044D0678761145F8264070BD7C
S31508000F300CED00E000E400E080E100E00249014336
S31508000F40024A1160704700000000FA050CED00E047
S31508000F502DE9F04104460D461646702C04DA1F4862
S31508000F6000EB0410807B10B90020BDE8F08135B194
S31508000F702EB105FB06F01A490968884201D90020F6
S31508000F80F3E72F4616480068B0FBF5F0B0FBF6F815
S31508000F901821204602F00EFA104901EB04114868A0
S31508000FA0002100F0F8FADFF834C00CEB041C9CF8BA
S31508000FB00E30A8F1010C1FFA8CF2A7F1010C1FFAEA
S31508000FC08CF1DFF818C00CEB041CDCF8040000F008
S31508000FD0BDFC024800EB0410807BC6E7643E0008AF
S31508000FE09400002029B1064AD2690243044BDA610B
S31508000FF004E0034AD2698243014BDA617047000074
S315080010000010024029B1064A92690243044B9A61CC
S3150800101004E0034A92698243014B9A6170470000D3
S315080010200010024030B500210022002400232D4D77
S315080010306D6805F00C0121B1042905D0082923D1D2
S3150800104005E0294D056022E0274D05601FE0254D86
S315080010506D6805F47012234D6D6805F48034022519
S3150800106005EB92421CB9214D554305600BE01D4D19
S315080010706D6805F400351DB11C4D5543056002E049
S31508001080194D5543056002E0174D056000BF00BFC6
S31508001090144D6D6805F0F0010909154D6B5C05687E
S315080010A0DD4045600F4D6D6805F4E061090A104D95
S315080010B06B5C4568DD4085600A4D6D6805F46051D6
S315080010C0C90A0B4D6B5C4568DD40C560054D6D680A
S315080010D005F44041890B074D6B5CC568B5FBF3F514
S315080010E0056130BD0010024000127A0000093D007B
S315080010F0800000209000002010B501460022002341
S3150800110000204A11012A02D1094C236806E0022A66
S3150800111002D1074C236A01E0054C636A01F01F02FD
S31508001120012494401C400CB1012000E0002010BDB1
S31508001130001002400248406800F00C0070470000AA
S315080011400010024001460020034A506820F0F000D3
S3150800115008435060704700000010024011490968B2
S3150800116021F480310F4A11601146096821F4802163
S315080011701160B0F5803F03D0B0F5802F0ED106E0A0
S315080011800849096841F48031064A116007E00549B3
S31508001190096841F4A021034A116000E000BF00BFBE
S315080011A0704700000010024001460020034A5068BC
S315080011B020F4E060084350607047000000100240C9
S315080011C001460020034A506820F4605040EAC100F6
S315080011D050607047001002400149086670470000D9
S315080011E00000424202460020044B586820F47C1056
S315080011F042EA01031843014B586070470010024049
S3150800120001460020034A506820F003000843506056
S31508001210704700000010024038B5002000900024F6
S31508001220002500BF3120FFF767FF05460098401CE0
S3150800123000900098B0F5A06F01D0002DF2D03120B3
S31508001240FFF75AFF08B1012400E00024204638BD04
S3150800125010B500F001F810BD0CB500200190009003
S315080012603348006840F480303149086000BF304890
S31508001270006800F4003000900198401C0190009826
S3150800128018B90198B0F5A06FF1D12948006800F4A3
S31508001290003010B10120009001E000200090009875
S315080012A0012843D12348006840F01000214908600E
S315080012B00846006820F0030008600846006840F009
S315080012C0020008601A48406819494860084640689C
S315080012D048600846406840F48060486008464068B0
S315080012E020F47C1048600846406840F4E8104860DE
S315080012F00846006840F08070086000BF0C48006827
S3150800130000F000700028F9D00948406820F0030072
S31508001310074948600846406840F00200486000BF38
S315080013200348406800F00C000828F9D10CBD0000FD
S31508001330001002400020024010B504461E4850F82E
S3150800134034001E4908600020FFF75AFF00BFFFF768
S31508001350F1FE0028FBD1FFF7F5FE4FF48060FFF79A
S3150800136023FF0020FFF72CFF0020FFF735FF4FF47F
S315080013708030FFF7F3FEFFF74FFF0F4800EBC4007E
S3150800138041684FF48030FFF72DFF0120FFF724FF57
S3150800139000BF3920FFF7B0FE0028FAD00220FFF779
S315080013A02FFF00BFFFF7C6FE0828FBD1012108461C
S315080013B0FFF728FE10BD000008000020940000205A
S315080013C002480068401C0149086070470400002074
S315080013D010B5002100200022214B5B6803F00C01A8
S315080013E021B1042906D0082928D107E01D4B1E4C37
S315080013F0236027E01B4B1C4C236023E0184B5B68DB
S3150800140003F47010164B5B6803F48032022303EB77
S31508001410904022B9154B4343134C23600DE0104B03
S315080014205B6803F4003323B1104B43430E4C23602F
S3150800143003E00C4B43430C4C236003E0094B0A4C76
S31508001440236000BF00BF064B5B68C3F30313084C59
S31508001450E15C054B1B68CB40034C236010BD0000C4
S315080014600010024000127A009400002000093D0096
S315080014709800002010B51348006840F00100114993
S31508001480086008464068104908400E494860084602
S3150800149000680E4908400B4908600846006820F4B1
S315080014A0802008600846406820F4FE0048604FF433
S315080014B01F008860FFF7CCFE4FF000600449086003
S315080014C010BD0000001002400000FFF8FFFFF6FE06
S315080014D008ED00E010B500BF0121084800F076F8D5
S315080014E048B10748006810B10549086880470121D6
S315080014F0024800F04DF800BF10BD0000002C014066
S315080015004001002010B500BF0121880700F05EF8F1
S3150800151048B10648406810B1044948688047012127
S31508001520880700F035F800BF10BD00004001002014
S3150800153010B500BF0121084800F048F848B107482F
S31508001540806810B10549886880470121024800F083
S315080015501FF800BF10BD0000000400404001002035
S3150800156010B500BF0121084800F030F848B1074817
S31508001570C06810B10549C86880470121024800F0D3
S3150800158007F800BF10BD0000000800404001002019
S31508001590CA430282704721B1028842F001020280E2
S315080015A004E002884FF6FE731A400280704731B194
S315080015B0B0F8442042F40042A0F8442005E0B0F810
S315080015C04420C2F30E02A0F84420704730B5024604
S315080015D0002000230024158A05EA0103958905EAF7
S315080015E0010413B10CB1012000E0002030BD000059
S315080015F070B5002400220023058C4FF6FE76354090
S315080016000584028C8388048B4FF68F752C40B51E93
S315080016102C400D882C43751E2A400D892A434D8877
S315080016202A43144DA8420BD0134DA84208D0134D97
S31508001630A84205D0124DA84202D0124DA84213D195
S315080016404FF6F7752A404D892A434FF6FB752A400F
S315080016508D882A434FF6FF652B404FF6FF552B40E2
S315080016608D892B43CD892B4383800483CD8885863A
S31508001670028470BD002C0140003401400040014046
S3150800168000440140004801400A460021018B4FF6FC
S31508001690F7731940114301837047000070B50024A1
S315080016A000220023058C4FF6EF7635400584028C20
S315080016B08388048B48F6FF752C404FF6FF452C406F
S315080016C00D884FF6FF7606EA05252C434FF6DF759B
S315080016D02A400D8906EA05152A434D8806EA0515A6
S315080016E02A43154DA84202D0144DA8421DD14FF6E3
S315080016F07F752A404D894FF6FF7606EA05152A4377
S315080017004FF6BF752A408D8806EA05152A434FF617
S31508001710FF352B404FF2FF752B408D8906EA85056C
S315080017202B43CD8906EA85052B4383800483CD8820
S315080017300587028470BD0000002C0140003401407A
S315080017400A460021018B4FF2FF7319404FF6FF73CB
S3150800175003EA0223194301837047000070B5002489
S3150800176000220023058C4FF6FF6635400584028C5F
S315080017708388848B4FF68F752C404FF6FC752C406A
S315080017800D882C434FF6FF552A400D894FF6FF76F4
S3150800179006EA05252A434D8806EA05252A43154DF6
S315080017A0A84202D0144DA8421DD14FF2FF752A4017
S315080017B04D894FF6FF7606EA05252A434FF6FF358B
S315080017C02A408D8806EA05252A434EF6FF752B40E2
S315080017D04DF6FF752B408D8906EA05152B43CD89F5
S315080017E006EA05152B4383808483CD888587028482
S315080017F070BD0000002C0140003401400A4600215B
S31508001800818B4FF6F77319401143818370470000A7
S3150800181070B5002200230024058C4EF6FF7635406D
S315080018200584038C8488828B48F6FF752A404FF618
S31508001830FF452A400D884FF6FF7606EA05252A4316
S315080018404DF6FF752B400D8906EA05352B434D8865
S3150800185006EA05352B430B4DA84202D00A4DA8428D
S3150800186008D14BF6FF752C408D894FF6FF7606EAB0
S3150800187085152C4384808283CD88A0F84050038444
S3150800188070BD0000002C0140003401400A460021CA
S31508001890818B4FF2FF7319404FF6FF7303EA022359
S315080018A01943818370470000002202881D4B984225
S315080018B00ED01D4B98420BD0B0F1804F08D01B4B71
S315080018C0984205D01A4B984202D01A4B984204D136
S315080018D04FF68F731A404B881A43174B984207D016
S315080018E0164B984204D04FF6FF431A40CB881A434A
S315080018F002808B8883850B8803850A4B98420BD018
S31508001900094B984208D00E4B984205D00D4B984289
S3150800191002D00D4B984201D10B7A038601238382AC
S3150800192070470000002C01400034014000040040CC
S3150800193000080040000C0040001000400014004061
S31508001940004001400044014000480140F0B587B01E
S3150800195004460D4616461F464C48844231D0B4F11B
S31508001960804F2ED04A4884422BD04A48844228D0F9
S315080019704948844225D04948844222D0484884426E
S315080019801FD0484884421CD04748844219D047484B
S31508001990844216D04648844213D04648844210D022
S315080019A0454884420DD0454884420AD0444884427A
S315080019B007D04448844204D04348844201D007B043
S315080019C0F0BD0121204600F081F8ADF81450ADF8BD
S315080019D010600020ADF81600ADF8120004A92046E4
S315080019E0FFF762FF7020ADF800000120ADF8020095
S315080019F00220ADF808002548844202D029488442CE
S31508001A0006D10020ADF80C00ADF80E00ADF80400C4
S31508001A10012F06D0022F0DD0032F14D0042F24D166
S31508001A201AE069462046FFF7E3FD08212046FFF73E
S31508001A302BFE1AE069462046FFF730FE08212046AD
S31508001A40FFF77EFE11E069462046FFF787FE08216C
S31508001A502046FFF7D3FE08E069462046FFF7D8FE82
S31508001A6008212046FFF712FF00BF00BF01212046CC
S31508001A70FFF791FD0548844202D00A48844203D103
S31508001A8001212046FFF793FD00BF98E7002C01408F
S31508001A900004004000080040000C00400010004010
S31508001AA00014004000340140004C01400050014041
S31508001AB00054014000180040001C0040002000406F
S31508001AC000400140004401400048014070B504460A
S31508001AD00D464748844204D12946C014FFF792FAB6
S31508001AE084E0B4F1804F04D129460120FFF77AFA41
S31508001AF07CE04048844204D129460220FFF772FA66
S31508001B0074E03D48844204D129460420FFF76AFA66
S31508001B106CE03A48844204D129460820FFF762FA65
S31508001B2064E03748844204D129461020FFF75AFA60
S31508001B305CE03448844204D129462020FFF752FA53
S31508001B4054E03148844204D129464014FFF75AFA32
S31508001B504CE02E48844205D129464FF40020FFF771
S31508001B6051FA43E02A48844205D129464FF48010A9
S31508001B70FFF748FA3AE02748844205D129464FF448
S31508001B800010FFF73FFA31E02348844204D1294682
S31508001B904020FFF727FA29E02048844204D1294645
S31508001BA08020FFF71FFA21E01D48844204D1294608
S31508001BB08015FFF717FA19E01A48844205D1294615
S31508001BC04FF48030FFF71EFA10E01748844205D11B
S31508001BD029464FF40030FFF715FA07E01348844208
S31508001BE004D129464FF48020FFF70CFA70BD000097
S31508001BF0002C01400004004000080040000C004092
S31508001C00001000400014004000340140004C014020
S31508001C10005001400054014000180040001C0040DC
S31508001C2000200040004001400044014000480140B7
S31508001C3010B5024800F0D0FB10BD0000600100207E
S31508001C4010B5024800F0C8FB10BD0000FC010020DA
S31508001C5010B5024800F0C0FB10BD00009802002035
S31508001C6010B50022002340F66A14A14200D100BF35
S31508001C700A1201249440A3B2DC43048010BD21B1AA
S31508001C80828942F40052828104E082894DF6FF730C
S31508001C901A408281704702460020B1F5007F00D1C4
S31508001CA000BF13880B400BB1012000E000207047ED
S31508001CB070B50246002400230025002040F66A1667
S31508001CC0B14200D100BFC1F3421501F01F0301263E
S31508001CD006FA03F3012D02D19689334006E0022D58
S31508001CE002D1168A334001E0968A33400C12012647
S31508001CF006FA04F41688344013B10CB1012000E04A
S31508001D00002070BDF0B503460024002600250020FB
S31508001D1040F66A17B94200D100BF1846C1F342140B
S31508001D2001F01F06012707FA06F5012C01D10C3030
S31508001D3004E0022C01D1103000E014301AB1076813
S31508001D402F43076002E00768AF430760F0BD000055
S31508001D502DE9F04786B005460E460024A24600BF88
S31508001D60A1460027B08900B100BF2F462C8A4CF641
S31508001D70FF700440F08804432C82AC894EF6F310B9
S31508001D800440B08831890843718908430443AC810B
S31508001D90AC8A4FF6FF400440B0890443AC8201A8E0
S31508001DA0FFF740F91F48874202D1DDF810A001E08D
S31508001DB0DDF80CA0A88900F4004040B10AEBCA007F
S31508001DC000EB0A1031684900B0FBF1F807E00AEBAE
S31508001DD0CA0000EB0A1031688900B0FBF1F86420EC
S31508001DE0B8FBF0F004012009642101FB1089A889D9
S31508001DF000F4004040B1322000EBC900B0FBF1F01E
S31508001E0000F00700044308E0322000EB09106421C3
S31508001E10B0FBF1F000F00F0004432C8106B0BDE8DA
S31508001E20F08700000038014001468888C0F30800A2
S31508001E307047C1F308028280704700002DE9F0411F
S31508001E4004460D46064A074B20462946FEF78EFAF3
S31508001E5006460022044BFEF7E2F9BDE8F0810000D1
S31508001E60CDCCCCCCCCCCFC3F000040402DE9F04F8B
S31508001E708DB004460D4692469B46244E244F4FF09D
S31508001E806638DFF890900022234B50465946FEF7F5
S31508001E90DFFACDE9020101F03DF842464B46CDE9AD
S31508001EA0060120462946FEF7BAF932463B46CDE9F1
S31508001EB0020120462946FEF759FACDE90001DDE977
S31508001EC00223FEF7C5FACDE90401DDE90623FEF78C
S31508001ED0A6F9CDE90A0130463946DDE90A23FEF7B7
S31508001EE03FFACDE9060140464946DDE90A23FEF7F1
S31508001EF03DFACDE90401DDE90623FEF7A9FACDE9A5
S31508001F000801DDE908010DB0BDE8F08F4C378941BD
S31508001F106045314066B66D40000059402DE9F84FDE
S31508001F2059A15A4800F0E9FC1121594800F017FD5B
S31508001F30824658A1554800F083FC1AF1020F0FD0CB
S31508001F40BAF1FF3F07D0BAF1000F0ED155A14F489D
S31508001F5000F0D3FC0EE054A14C4800F0CEFC09E09A
S31508001F6055A14A4800F0C9FC04E057A1474800F0CB
S31508001F70C4FC00BF00BF58A1444800F061FC4449B6
S31508001F800868FEF7D4FA0646FEF743FB0446022025
S31508001F9022460B4600903D4800F0BDFC52A13B4846
S31508001FA000F04EFC3A494868FEF7C1FA0646FEF7C5
S31508001FB030FB0446022022460B460090334800F0C8
S31508001FC0AAFC4EA1314800F03BFC31494868FEF7AF
S31508001FD0B7FA0646FFF732FF0446022022460B46AA
S31508001FE000902A4800F097FC49A1284800F028FCF0
S31508001FF027494868FEF7A4FA064600F0D9F80446C9
S31508002000022022460B460090204800F084FC45A199
S315080020101E4800F015FC1E490868FEF791FA0646A8
S315080020200F461B494868FEF78BFA804632463B4600
S3150800203000F0CCF80446022022460B4600901348CE
S3150800204000F069FC3CA1114800F0FAFB1049086849
S31508002050FEF776FA06460F460D494868FEF770FA07
S31508002060804632463B46FFF701FF044602202246D9
S315080020700B460090054800F04EFC4FF4FA6000F05D
S31508002080B9FEBDE8F88F00000A00000060010020D4
S31508002090B0000020526561642073656E736F723AF2
S315080020A0200000004F4B0000436865636B73756D35
S315080020B0206572726F72000054696D65206F7574C1
S315080020C0206572726F720000556E6B6E6F776E20A8
S315080020D06572726F7200000048756D69646974797B
S315080020E0202825293A20000054656D7065726174B0
S315080020F075726520286F43293A20000054656D7073
S315080021006572617475726520286F46293A20000049
S3150800211054656D706572617475726520284B293A2D
S315080021202000000044657720506F696E7420286F80
S3150800213043293A200000000044657720506F696EF5
S31508002140744661737420286F43293A200000000002
S3150800215010B54FF41651094800F067F908A1074869
S3150800216000F0CBFB0BA1054800F06AFB0EA1034863
S3150800217000F0C3FB014800F0E4FB10BD600100203D
S31508002180444854313120544553542050524F4752F5
S31508002190414D20004C49425241525920564552530E
S315080021A0494F4E3A20000000302E342E31000000F0
S315080021B070B504460D464FF06632034B2046294655
S315080021C0FEF72DF870BD0000661271402DE9F04F3C
S315080021D091B08046894692469B464FF06632654BDB
S315080021E040464946FEF71BF802460B46CDE90A016A
S315080021F04FF066306049FEF72BF906460F46002277
S315080022005E4B30463946FEF7ABF85D4A5D4BCDE985
S315080022100A01FEF7ABF804460D463046394601F08A
S3150800222027F8594A594BCDE90801FEF79FF8224687
S315080022302B46CDE90A01FDF7F2FF04460D46324664
S315080022403B4600204D49FEF703F900224B4BCDE9EA
S315080022500001FEF788F84E4A4E4BCDE90201FEF71B
S3150800226085F802460B46CDE9040100204A4901F0EB
S31508002270E7F80022414BCDE90601FEF771F8474A17
S31508002280474BCDE90801FEF771F822462B46CDE902
S315080022900A01FDF7C4FF04460D460022374B3046B7
S315080022A03946FEF75DF83F4A3F4BCDE90201FEF796
S315080022B05DF802460B46CDE904010020364901F0D7
S315080022C0BFF800222D4BCDE90601FEF749F8374A3B
S315080022D0374BCDE90801FEF749F822462B46CDE9EA
S315080022E00A01FDF79CFF04460D463248324900F0C4
S315080022F0BFFF22462B46CDE90A01FDF790FF0446AB
S315080023000D4600222D4B20462946FEF729F802469F
S315080023100B46CDE9080100201F4901F091F8524605
S315080023205B46CDE90A01FEF721F8CDE90E01244AFC
S31508002330244BDDE90E01FEF78BF8CDE90A0100F022
S31508002340E9FDCDE90C0120482049DDE90C23FEF71B
S3150800235007F8CDE90A011E481E49DDE90C23FEF7F8
S3150800236005F8CDE90801DDE90A23FEF771F811B091
S31508002370BDE8F08F66127140665277400000F03F64
S31508002380B1C403CAA69C1FC0CDAFE600C11C144049
S31508002390E3A59BC420B0264000002440B13D423648
S315080023A0248B82BE037D224F92EE0BC0630333F06B
S315080023B0EDA7803F8716D9CEF7A98F4000000840C1
S315080023C0CFA0A17F828BE33F022B8716D98E31409F
S315080023D05C8FC2F5283C6E4070B5044640F2255124
S315080023E02069FFF765FCF8B12069FFF71DFDC6B245
S315080023F0218B491C88B2C11700EB5161C911A0EBAA
S31508002400C1118DB2608BA84204D0218B04F11C0047
S3150800241046542583606908B16069804740F22551B2
S315080024202069FFF71DFC00BF70BD70B504460D4658
S3150800243000222946204600F001F870BDF8B504468A
S315080024400D461646032001233246294600902046AB
S3150800245000F002F8F8BD00002DE9F04F87B00446F9
S315080024608A4691469B465749206988420BD10121E5
S3150800247044F20400FEF7C6FD4FF400767700524D8D
S315080024804FF025084DE05149206988420DD10121B8
S315080024904804FEF7A7FD01210420FEF7B3FD042634
S315080024A00827494D4FF026083BE0494920698842EC
S315080024B00ED101218804FEF795FD01210820FEF7BB
S315080024C0A1FD4FF480667700424D4FF0270828E0BB
S315080024D04149206988420ED10121C804FEF782FDD0
S315080024E001211020FEF78EFD4FF4806677003B4DE4
S315080024F04FF0340815E03A492069884211D1012184
S315080025000805FEF76FFD01211020FEF77BFD01216E
S315080025102020FEF777FD4FF4805604272F4D4FF005
S315080025203408ADF8186003208DF81A0018208DF8C5
S315080025301B0006A92846FEF7E9FBADF8187004202B
S315080025408DF81B0026492069884204D106A925482A
S31508002550FEF7DCFB03E006A92846FEF7D7FB8DF855
S3150800256004808DF805B010988DF8060001208DF8C6
S31508002570070001A8FEF7AAFCCDF808A009F47040E8
S31508002580ADF80C0009F47060ADF8100009F0F00021
S315080025900002ADF80E000020ADF814000C20ADF8CE
S315080025A0120002A92069FFF7D3FB012240F2255148
S315080025B02069FFF7A7FB01212069FFF760FB07B039
S315080025C0BDE8F08F00380140000801400044004093
S315080025D000480040000C0140004C0040001001403B
S315080025E0005000400014014070B504460D4600BF77
S315080025F080212069FFF74FFB0028F9D0294620697A
S31508002600FFF717FC012070BD00BF094A02600022CF
S31508002610426000BF074A02604FF47A72826000BFC8
S31508002620054A0260016100224261428302837047C3
S315080026305C46000870460008384600082DE9FF5F2A
S3150800264086B014461D46DDF850B000260022134613
S3150800265020462946FEF708F802D22046294602E017
S31508002660204685F00041494A494BCDE90201FDF76C
S31508002670FBFF14D80022134620462946FDF7DCFF47
S3150800268004D22D21069800F0E4F8064641A10698E2
S3150800269000F0D6F8064430460AB0BDE8F09F00229E
S315080026A0134620462946FDF7C7FF06D22D21069870
S315080026B000F0CFF8064485F000450027DFF8E480EF
S315080026C0002003900BE00022374B38464146FDF7C1
S315080026D0BFFE074688460398401CC0B2039003987D
S315080026E05845F0DB3A46434620462946FDF797FD0E
S315080026F004460D4620462946FDF766FFCDE9040146
S31508002700DDE90401FDF72DFF22462B46CDE902013E
S31508002710FDF729FE81468A460A200090DDE9042352
S31508002720069800F0B7F80644BBF1000F04DD1FA1B8
S31508002730069800F085F806441EE000221A4B484623
S315080027405146FDF713FE81468A4648465146FDF72F
S315080027501CFF03900A220399069800F090F8064495
S315080027600398FDF7EDFE4A465346CDE90001FDF70D
S31508002770FAFD81468A4600BFBBF10000ABF10101B4
S3150800278001F0FF0BD9DC304686E700008003507263
S315080027906C92DF433C6C6172676520646F75626C8E
S315080027A0653E00000000E03F000024402E000000C7
S315080027B02DE9F04391B0814614461D46189F002620
S315080027C0B046002184EA01006940084307D1302158
S315080027D0484600F03EF8012011B0BDE8F08311E04C
S315080027E03A46002320462946FDF7A0FC3146761CCA
S315080027F001A842543A46002320462946FDF796FC8E
S3150800280004460D46002184EA010069400843E7D1E1
S3150800281012E0701E01AA105C0A2803DA701E105C0A
S31508002820303003E0701E01AA105C3730C1B248464A
S3150800283000F00FF88044761E002EEAD14046CBE71A
S3150800284070B504460D4620682946426820469047DA
S3150800285070BD70B504460D462068294602682046B4
S31508002860904770BDF8B5064614461D46069FF8B251
S3150800287022462B4600903046FFF7E0FEF8BDF8B535
S3150800288006460C4615462246E3173046009500F0E4
S3150800289001F8F8BDF8B5064614461D46069F2FB939
S315080028A0E1B23068026830469047F8BD0021084614
S315080028B0611A75EB000007DA2D213046FFF7C9FFCC
S315080028C00022644262EB0505F8B222462B460090C8
S315080028D03046FFF76DFFE8E770B505460C4600265B
S315080028E006E014F8011B2868026828469047761CFB
S315080028F020780028F5D1304670BD70B505460E46DD
S3150800290031462846FFF79CFF0446284600F019F88A
S315080029100444204670BD2DE9F843074615461E4671
S31508002920DDF820802A4633463846CDF80080FFF782
S3150800293099FF0446384600F004F804442046BDE8EA
S31508002940F88370B505460D212846FFF782FF044631
S315080029500A212846FFF77DFF0444204670BD2DE96D
S31508002960FC5F06460C4607274FF00008002003E0E8
S3150800297000210DF80010401C0528F9DBE0B21021F3
S3150800298000F018FDE0B2002100F080FA122000F0F5
S3150800299031FAE0B2012100F079FA282000F036FA7F
S315080029A0E0B2042100F006FD42F2107506E0281E8A
S315080029B0A5F1010502D1801EBDE8FC9FE0B200F03A
S315080029C04FFA0028F3D042F2107505E0281EA5F14B
S315080029D0010501D1801EEFE7E0B200F041FA0128B7
S315080029E0F4D04FF0000B37E042F2107505E0281ED0
S315080029F0A5F1010501D1801EDEE7E0B200F030FA4C
S31508002A000028F4D000F0B6FC814642F2107505E0C5
S31508002A10281EA5F1010501D1801ECDE7E0B200F020
S31508002A201FFA0128F4D000F0A5FCA0EB090028281D
S31508002A3007D91DF808000121B9400843C0B20DF8AE
S31508002A4008002FB9072708F1010000F0FF0801E088
S31508002A50781EC7B20BF1010BBBF1280FC4DB9DF83A
S31508002A60000030609DF8020070609DF800009DF837
S31508002A700210084400F0FF0A9DF80400504502D0F1
S31508002A804FF0FF3098E7002096E7000010B5064C97
S31508002A90046000BF054C046080F8543080F8551077
S31508002AA080F8562010BD0000A44600089446000889
S31508002AB005490160002180F8551080F8561000BFBE
S31508002AC000BF00BF704700009446000801607047C9
S31508002AD02DE9F04104460D4616461F46DDF81880D6
S31508002AE0204600F00DF804460448206025716671FA
S31508002AF0A77184F807802046BDE8F081B44600082F
S31508002B000149016070470000C0460008490050EAC4
S31508002B10C12018BF04204A0D18BF40F0010040F23A
S31508002B20FF72B2EB515F08BF40F00200012808BFF0
S31508002B300520704710B5002804DB0A07130E054A5E
S31508002B40135406E00A07140E034A00F00F031B1F6E
S31508002B50D45410BD00E400E018ED00E00020FDF7B5
S31508002B60D1BD000030B528B1144C031F00202168E0
S31508002B700A4605E0084630BD9A4203D81046526810
S31508002B80002AF9D1002800D041680BD00468A3EBCD
S31508002B900005A54204D11B681C440346046002E0F4
S31508002BA0436000E023603AB11C68D51AA54203D1F8
S31508002BB015682C441C6052685A6030BDB800002065
S31508002BC02DE9F0414F1E00EBC7010446D1E900018B
S31508002BD015461E4637F006020DD02A463346FDF73F
S31508002BE0C5FB7F1E04EBC703D3E90023FDF717FBDC
S31508002BF037F00602F1D1022F25D0042F13D0062F65
S31508002C0018BFBDE8F0812A463346FDF7AFFBD4E985
S31508002C100A23FDF704FB2A463346FDF7A7FBD4E94A
S31508002C200823FDF7FCFA2A463346FDF79FFBD4E94D
S31508002C300623FDF7F4FA2A463346FDF797FBD4E94F
S31508002C400423FDF7ECFA2A463346FDF78FFBD4E951
S31508002C500223FDF7E4FA2A463346FDF787FBD4E953
S31508002C600023BDE8F041FDF7DABA00002DE9F04788
S31508002C7082460F4C10480D4E0E4F001B4FF00008B1
S31508002C8020F007054FF0010900221146504600F0D2
S31508002C9019F9002802D1306810B10020BDE8F08784
S31508002CA03C60C4E90058C6F80090EDE7BC00002077
S31508002CB01C050020B8000020180700200022134633
S31508002CC010460149FDF7C4BB0000F03F0122FDF79D
S31508002CD0CFBDFDF7A4BA0022134610461146FDF7EC
S31508002CE0B7BB40F2013200204FF0E041FDF7C0BD0E
S31508002CF0024A00201107FDF7BBBD000001FDFFFFDA
S31508002D0002E008C8121F08C1002AFAD170477047A6
S31508002D10002001E001C1121F002AFBD17047000004
S31508002D200149086070470000C000002008B500206F
S31508002D3003460246014600900148FFF7C9FE08BD52
S31508002D40A800002000B50A490A48FFF75DFC0A49B1
S31508002D500A48FFF759FC0A490A48FFF755FC0A4989
S31508002D600A48FFF751FC0A490A48FFF74DFC00BD1F
S31508002D70003801406001002000440040FC010020AA
S31508002D800048004098020020004C00403403002010
S31508002D9000500040D003002000B506490648FFF75A
S31508002DA095FE06490648FFF791FE06490648FFF7CD
S31508002DB08DFE00BD003001406C0400200038004044
S31508002DC088040020003C0040A404002010B500231D
S31508002DD0172216210448FFF759FE0446034A0449F8
S31508002DE0FDF706FA10BD0000C00400200000000828
S31508002DF0B12A0008044A1268111800BF024A12686C
S31508002E008A42FBD37047000004000020F0B5024652
S31508002E100020114E3668114FB6FBF7F606FB02F591
S31508002E204FF0E026B3691C46002100BF4FF0E026AC
S31508002E30B469191B002901DD084407E0064E366807
S31508002E404FF47A77B6FBF7F60E443044A84200D919
S31508002E50F0BD2346EAE700009400002040420F0038
S31508002E600146702901DB00207047074800EB011076
S31508002E7000688068044A02EB01129289104008B182
S31508002E800120F1E70020EFE7643E0008702800DB28
S31508002E90704749B10A4A02EB00129289084B03EBC4
S31508002EA000131B681A6108E0054A02EB00129289B2
S31508002EB0034B03EB00131B685A6100BFE8E70000E9
S31508002EC0643E00082DE9F0410B3020F00706104D4E
S31508002ED019E02068B04215D3B0420AD9871B201DD5
S31508002EE0D4F80480FDF753F9A019C0E900782860E2
S31508002EF004E060682860201DFDF749F9201D26605A
S31508002F00BDE8F081251D2C68002CE2D10020F7E7EA
S31508002F10B80000202DE9F04DC84A002490B091422F
S31508002F2005DA21F00043934201D805D120B110B04B
S31508002F30BDE8F04DFFF7CABEB1F5801F1BDA53EAAC
S31508002F40000209D0002911DA0120FFF7E9FE10B0C6
S31508002F50BDE8F04DFFF7BFBE0220FFF7E1FEFFF721
S31508002F60ADFE10B081F00041BDE8F08D6FF035047C
S31508002F703622FDF77DFC04EB2152C1F31308B04954
S31508002F80A2F2FF33414401F4801282F07F6103EB21
S31508002F90225281F04051009241EA08010022A94BD1
S31508002FA0FDF7DEF9044608F10200A74EC0F3130048
S31508002FB00D467E44032867D2D6E900232046FDF74E
S31508002FC03BFB1ED10098002802BFD6E9000110B0CD
S31508002FD0BDE8F08DFDF7B4FA07460C469B4A9C4BB4
S31508002FE0FDF7C4F906460D469A4A9B4B38462146D4
S31508002FF0FDF7BCF910B032462B46BDE8F04DFDF79B
S315080030000EB94FF05532954B20462946FDF7AEF9D5
S315080030100022934BFDF7A7F906460F4622462B4694
S3150800302010461946FDF7A2F932463B46FDF79EF9CA
S31508003030064600980F46F0B1FDF782FA80468A46A2
S31508003040824A834BFDF792F932463B46FDF78BF9E8
S3150800305022462B46FDF784F905460C467D4A7E4BEB
S3150800306040465146FDF782F910B02A462346BDE888
S31508003070F04DFDF775B90B4610B032462046294685
S31508003080BDE8F04DFDF76CB900224FF080432046AD
S31508003090FDF7C5F802460B4620462946FDF7D8F93E
S315080030A006460F460098FDF74BFACDE9040132466D
S315080030B03B4610463946FDF759F90C9069480C9A73
S315080030C04044019009910B461046FDF74FF9824698
S315080030D0024665488B46C8F151080B4608F5D728BD
S315080030E003217844FFF76CFD52465B46FDF73EF92F
S315080030F00A905E480D9152465B4604217844FFF7D4
S315080031005FFD099B0C9AFDF731F9844601980D9BE2
S3150800311040EA080860460A9AFDF781F8834608914E
S31508003120B8F1000F4EDD4FF0FF3220462946FDF775
S315080031309FFB22462B46FDF719F9804600988A46DA
S3150800314060B3DDE90401414A414BFDF70FF90991E6
S3150800315000905A4640465146089BFDF760F83246AD
S315080031603B46FDF703F9099B009AFDF758F84246D6
S315080031705346FDF7F8F822462B46FDF7F1F80446C4
S315080031800D46DDE90401334A334BFDF7EFF810B07D
S3150800319022462B46BDE8F04DFDF7E2B85A464046B2
S315080031A0089BFDF73CF832463B46FDF7DFF84246FA
S315080031B05346FDF7D8F810B022462B46BDE8F04D29
S315080031C0FDF7D1B8009840B3DDE904011F4A204B4A
S315080031D0FDF7CCF880468A465A4620462946089B7B
S315080031E0FDF7BEF832463B46FDF7C0F84246534661
S315080031F0FDF7B6F822462B46FDF7B2F804460D460B
S31508003200DDE90401134A144BFDF7B0F810B0224665
S315080032102B46BDE8F04DFDF7A3B80B465A462046A7
S315080032202946FDF79DF832463B46FDF79FF810B054
S3150800323022462B46BDE8F04DFDF795B80000F07F15
S31508003240645F09000000F03F72160000763C79358D
S31508003250EF39EA3D0000E0FE422EE63F5555D53FE0
S315080032600000E03F86EBF9FF82140000801400009E
S315080032702DE9F041044630480025814205DA21F05F
S315080032800042824201D805D124B12046BDE8F0416A
S31508003290FFF71CBDB1F5801F1BDA52EA040008D0FF
S315080032A000290FDA0120FFF73BFDBDE8F041FFF7E3
S315080032B012BD0220FFF734FDFFF700FD81F0004143
S315080032C0BDE8F0816FF0350536222046FDF7D0FAC5
S315080032D0044605EB2150A0F2FF32D00F40F2FF332F
S315080032E01B1A0D4663F31F551044FDF729F90646C8
S315080032F00F4629462046FFF70DFE104A104BFDF7EC
S3150800330035F804460D460F4A0F4B30463946FDF749
S315080033102DF822462B46FCF782FF05460C460B4A3B
S315080033200B4B30463946FDF721F82A462346BDE8B9
S31508003330F041FCF774BF00000000F07F0EE526158B
S315080033407BCBDB3F362BF111F3FE593D00609F50D6
S315080033501344D33F4FF4A060FDF7F0FD0720FDF7B7
S31508003360EBFFFDF771FBFEF7F3FE00BFFEF7D6FD98
S31508003370FCE700000C4800684FF47A71B0FBF1F0E6
S315080033804FF0E0218969401A07490968074AB1FBE5
S31508003390F2F1B0FBF1F00649096801EB4102C2EB14
S315080033A0C11100EBC10070479400002040420F0095
S315080033B00400002070B505460C46702D00DB70BD74
S315080033C06CB1042C0BD0282C09D0482C07D0142C0F
S315080033D005D0102C03D01C2C01D0182C0CD1174A60
S315080033E002EB05129189154A02EB051203231068B0
S315080033F02246FDF717FD1EE0012C13D1702D05DAC4
S315080034000E4800EB0510C07BFF2800D1D7E7002146
S315080034102846FFF7CFFF094901EB0511C87BFDF7E1
S31508003420A3FA08E0022C06D142F210724FF47A7120
S315080034302846FDF78DFD00BFC1E70000643E000881
S315080034402DE9F04D1D460C4698B0174621F000416F
S3150800345023F00043002814BF4FF0010C4FF0000C76
S315080034600CEB440CFE4A0CEB02064FEA620C66456E
S315080034702BD33E0018BF012606EB45061644F94A2B
S31508003480964222D3F84A53EA070C02D0944205D151
S3150800349048B918B000201146BDE8F08D002808BFCD
S315080034A04FF0000C01D04FF0010C0CEB440212F562
S315080034B0001F0AD8002F14BF4FF0010C4FF0000C64
S315080034C00CEB450212F5001F07D918B03A462B46F1
S315080034D02146BDE8F04DFFF7FCBB0022DFF88CA3C0
S315080034E0002CB8BF534526DADFF884C36345A8BF66
S315080034F0022220DADFF870C39C451CDCDFF874C3AF
S315080035000CEB235CBCF1140F08DDCCF1340627FA6A
S3150800351006FC0CFA06F6BE420DD108E05FB9CCF1FE
S31508003520140623FA06FC0CFA06F69E4203D10CF0A2
S315080035300102C2F1020251EA000C19D1002D17DA74
S31508003540002C18BF022A01D0012A07D00220FFF753
S31508003550E7FB18B0BDE8F04DFFF7B0BB0220FFF758
S31508003560DFFBFFF7ABFB18B081F00041BDE8F08D3B
S31508003570B7F1000C6CD1534525D104F1804212F500
S31508003580801201BF00280020B74918B008BFBDE85F
S31508003590F08DB548884207DC002DA1BF6046294654
S315080035A018B0BDE8F08D07E0281E05DA80F0004166
S315080035B018B06046BDE8F08DAF497944D1E90001FD
S315080035C018B0BDE8F08DDFF8A0C2634525D1002DFF
S315080035D01FDA19B1514512D1D8B909E0002840F0CF
S315080035E0EC82A24A214618B062F31E01BDE8F08DAE
S315080035F00020214618B060F31E01BDE8F08D08DAF8
S3150800360018B02346BDE8F04D024600206146FCF797
S315080036101FBF18B02146BDE8F08D514518DAB5F13F
S31508003620804F0DD0A5F1005CBCF1FF5C10D1B4F160
S31508003630000C0DDB18B06146BDE8F04D00F0ECBBA0
S31508003640234618B00246BDE8F04D1946FCF78EBE73
S31508003650060024F0004C3BD1D9B1514533D1002C9A
S3150800366006DD002DA1BF0020514618B0BDE8F08D3B
S31508003670002C01DD002D1BDB002C13DA002D11DBDD
S31508003680012A4FF0000014BF78497C4918B0BDE8FC
S31508003690F08D022A18BF002C0AD0012A08D1002C66
S315080036A006DA0AE0002CB8BF002D11DA012A04D088
S315080036B0002018B00146BDE8F08D18B000204FF084
S315080036C00041BDE8F08DA1F14050B0F17F601AD0FD
S315080036D0012000EBE47050EA020421D0624C521E2D
S315080036E04FF0000B104304BF4FF0000B644C6548C5
S315080036F083427CDD644A654893421FDD884217DBB6
S31508003700002D25DB37E0002C00DA4AB1022A0CBF6F
S3150800371001204FF0FF3018B0BDE8F04DFCF710BFA0
S315080037200120FFF7FDFA18B0BDE8F04DFFF7D3BA50
S315080037304D4A8A4202DC002D0ADC1CE0814202DA8C
S31508003740002D18DA04E0484B994220DD002D12DDE1
S315080037500220FFF7E5FAFFF7C4FA05460E460022EF
S31508003760534658462146FCF701FE18B066F31E017B
S315080037702846BDE8F08D0220FFF7D2FAFFF7B8FA1F
S315080037800A46214618B062F31E01BDE8F08D0022F4
S3150800379030466146FCF7E4FD80460E466FF00102AE
S315080037A0FDF766F84FF05532394BFCF7DCFD42461B
S315080037B03346FCF7DBFD0022364BFCF7D4FD824688
S315080037C042463346049110461946FCF7CFFD524649
S315080037D0049BFCF7CBFD8A4600904FF0C0422E4B67
S315080037E040463146FCF7C2FD2C4A2B4B00E027E049
S315080037F0CDE9060151460098FCF7B8FD82460191CD
S31508003800274A284B40463146FCF7B0FD5246019BF5
S31508003810FCF7A6FD82460B4602460591DDE9060140
S31508003820FCF7FDFCDDE90623002688463046FCF752
S3150800383097FD5246059BFCF796FD024600F07EB9B9
S315080038400020B1F5801F07DA352230466146FDF7BC
S315080038500FF806466FF0340000EB215024E0000014
S31508003860FFFF1F00FFFF0F000000F03F0000F07F82
S315080038700000404301FCFFFF6A1000000000F0FF53
S315080038800000F0BF0000E0410000F043FFFFEF3FFB
S315080038905555D53F0000E03F4715F73FFE822B659B
S315080038A044DF5DF80BAE543EA0F2FF300190C1F341
S315080038B0130040F07F6141F040510291FE49884271
S315080038C0D8BF002004DDFD498142C8BF012001DDC3
S315080038D00D9008E000200D900198401C0190029878
S315080038E0A0F5801002900299F54878440B910D993D
S315080038F000EBC100D0E900230F9330460A920B99DA
S31508003900FCF72EFDCDE90601DDE90A2130460F9BBD
S31508003910FCF785FC02460B460020EA49FCF798FDB1
S31508003920059102460B460090DDE90601FCF71EFDEF
S315080039301490E5488A464FF00008784402990068D2
S3150800394012904FF0005040EA61010D980F9B01EB71
S31508003950804000F5002109910A9A1298FCF700FDAB
S3150800396032460B9BFCF7FFFC42465346FCF7FEFC2F
S315080039700646029140465146099B129AFCF7F6FC08
S31508003980DDE90623FCF7EFFC3246029BFCF7E8FC70
S31508003990059B009AFCF7EAFC0091149A049053469A
S315080039A010461946FCF7E2FC06460246C7480B468F
S315080039B0029106217844FFF703F9CDE90510029B29
S315080039C0324610461946FCF7D1FCDDE90532FCF70C
S315080039D0CDFC05910646534640461946149AFCF70F
S315080039E01EFC009B049AFCF7C1FC3246059BFCF7BB
S315080039F016FCCDE905104246534610461946FCF713
S31508003A00B5FC0022B24B02910A90FCF708FCDDE9EE
S31508003A100532FCF704FC0E464246AD4B4046FCF721
S31508003A209FFC029B0A9AFCF79BFCDDE90532FCF732
S31508003A309AFC424602910A90334610465146FCF7D4
S31508003A4095FCCDE906015346149A02990A98FCF7A3
S31508003A508DFC8A4602903346424600990498FCF744
S31508003A6085FC5346029AFCF7DAFB82460B46024669
S31508003A700591DDE90601FCF7D2FBDDE90623002006
S31508003A8088460646FCF76CFC5246059BFCF76BFC21
S31508003A90824609914FF060428E4B30464146FCF70C
S31508003AA065FC049006918C4A8A4B50460999FCF7A6
S31508003AB05DFC82460291894A894B30464146FCF7AD
S31508003AC055FC5246029BFCF7AAFB864B7B440D9A93
S31508003AD003EBC203D3E90023FCF7A1FB0E90079181
S31508003AE00198FCF72DFD0591DDE9061382460E9A2D
S31508003AF00498FCF794FB7C4A7A440D9B02EBC303BB
S31508003B00D3E9002300930292FCF789FB5246059BF2
S31508003B10FCF785FB0026884652463046059BFCF78F
S31508003B201FFC009B029AFCF71BFC069B049AFCF7F9
S31508003B3017FC079B0E9AFCF716FC024600200B465C
S31508003B40029038462946FCF711FC824601912B461D
S31508003B5038461946029AFCF703FC32464346FCF7F8
S31508003B6005FC5246019BFCF75AFB07468A46324635
S31508003B70434629460298FCF7F9FB05460E463A469F
S31508003B805346FCF74CFB594A8846914221DBA8EB81
S31508003B90020353EA000210D12A463346FCF7E0FB3B
S31508003BA0CDE90401524A534B38465146FCF737FBD8
S31508003BB0DDE90423FCF758FD21D20220FFF7B0F80F
S31508003BC0FFF78FF80A46214618B062F31E01BDE8D2
S31508003BD0F08D494B28F000429A4210D3474A08EB29
S31508003BE0020353EA00027FF4C6AD2A463346FCF7C1
S31508003BF0B7FB3A465346FCF737FD7FF6BCAD0022C5
S31508003C00019228F000403E493E4A01EB205182428B
S31508003C1023DA481C4FF4801121FA00F040443A4A4E
S31508003C20C0F30A517A44394BA1F2FF31CB4020EA5E
S31508003C300303C0F3130040F48010C1F11401C84017
S31508003C4012680190B8F1000FBCBF404201902846A7
S31508003C503146FCF785FB05460E462A463346384666
S31508003C605146FCF7DCFA4FF000084246284B40461E
S31508003C700591FCF77BFBCDE90601264A264B404613
S31508003C800599FCF773FB009102902A463346404695
S31508003C900599FCF765FB3A465346FCF764FB1F4A51
S31508003CA01F4BFCF763FB009B029AFCF7B8FA074622
S31508003CB0884602460B4635E08E9803007AB60B0016
S31508003CC0B20C00000000F03FEA0C0000180C0000DF
S31508003CD00000084009C7EE3FFD033ADCF5015B1416
S31508003CE0E02F3EBEF00A0000B40A00000000904033
S31508003CF0FE822B654715973C00CC904000346F3FF9
S31508003D0001FCFFFF0000E03F000A0000FFFF0F0074
S31508003D10432EE63F396CA80C615C20BEEF39FAFEEB
S31508003D20422EE63FDDE90601FCF779FADDE90623CE
S31508003D3005460E46FCF714FB3A464346FCF713FBCA
S31508003D400F462A463346009010461946FCF70EFBE6
S31508003D50824602462E4888460B4605217844FEF7D9
S31508003D602FFF52464346FCF701FB2A463346FCF72B
S31508003D70FAFA80468A463B4628463146009AFCF7B8
S31508003D80F5FA3B46009AFCF74AFA0691009000229B
S31508003D904FF0804340465146FCF7E2FA0F460C9036
S31508003DA04246534628463146FCF7E0FA3B460C9A0B
S31508003DB0FCF74EFB069B009AFCF7D2FA2A463346D6
S31508003DC0FCF7CEFA0022134BFCF7CDFA054601980C
S31508003DD00E4601EB00510815002810DC284631462E
S31508003DE0019AFCF745FDFEF791FE042808BFFEF789
S31508003DF07FFF28463146019AFCF73AFD05460B46F1
S31508003E0018B02A4658462146BDE8F04DFCF7AEBA2A
S31508003E10A00800000000F03F2DE9F04106460F46D5
S31508003E20FCF751FD041E0D4618BF0120284320F05B
S31508003E300040C0F17F6000F1E040C00F0ED0301C9A
S31508003E4018BF0120384320F00040C0F17F6000F120
S31508003E50E040C00F04BF0120FEF762FF2046294656
S31508003E60BDE8F08100080140000000400024014040
S31508003E700100010000080140000000400024014044
S31508003E800200020100080140000000400024014031
S31508003E90040003020008014000000040002401401D
S31508003EA00800040300080140000000000024014047
S31508003EB01000000400080140000000000024014032
S31508003EC020000005000801400004004000240140CD
S31508003ED0400001060008014000040040002401409B
S31508003EE08000020700080140002C01400000000085
S31508003EF0000101FF00080140002C014000000000FD
S31508003F00000202FF00080140002C014000000000EA
S31508003F10000403FF00080140002C014000000000D7
S31508003F20000804FF0008014000000000000000002F
S31508003F30001000FF0008014000000000000000001B
S31508003F40002000FF000801400000000000000000FB
S31508003F50004000FF000801400000000000000000CB
S31508003F60008000FF000C01400004004000240140CE
S31508003F7001000308000C0140000400400024014031
S31508003F8002000409000C01400000000000000000C7
S31508003F90040000FF000C01400000000000000000C3
S31508003FA0080000FF000C01400000000000000000AF
S31508003FB0100000FF000C0140000000000000000097
S31508003FC0200000FF000C014000080040000000002F
S31508003FD0400001FF000C01400008004000000000FE
S31508003FE0800002FF000C01400008004000000000AD
S31508003FF0000103FF000C014000080040000000001B
S31508004000000204FF000C0140000000000000000050
S31508004010000400FF000C0140000000000000000042
S31508004020000800FF000C014000000000000000002E
S31508004030001000FF000C0140000000000000000016
S31508004040002000FF000C01400000000000000000F6
S31508004050004000FF000C01400000000000000000C6
S31508004060008000FF0010014000000000002401400D
S315080040700100000A00100140000000000024014071
S315080040800200000B0010014000000000002401405F
S315080040900400000C0010014000000000002401404C
S315080040A00800000D00100140000000000024014037
S315080040B01000000E0010014000000000002401401E
S315080040C02000000F001001400034014000000000ED
S315080040D0400001FF001001400034014000000000CC
S315080040E0800002FF0010014000340140000000007B
S315080040F0000103FF001001400034014000000000E9
S31508004100000204FF0010014000000000000000004B
S31508004110000400FF0010014000000000000000003D
S31508004120000800FF00100140000000000000000029
S31508004130001000FF00100140000000000000000011
S31508004140002000FF001001400000000000000000F1
S31508004150004000FF001001400000000000000000C1
S31508004160008000FF0014014000000000000000006D
S31508004170010000FF001401400000000000000000DC
S31508004180020000FF001401400000000000000000CB
S31508004190040000FF001401400000000000000000B9
S315080041A0080000FF001401400000000000000000A5
S315080041B0100000FF0014014000000000000000008D
S315080041C0200000FF0014014000000000000000006D
S315080041D0400000FF0014014000000000000000003D
S315080041E0800000FF001401400000000000000000ED
S315080041F0000100FF0014014000000000000000005C
S31508004200000200FF0014014000000000000000004A
S31508004210000400FF00140140000000000000000038
S31508004220000800FF00140140000000000000000024
S31508004230001000FF0014014000000000000000000C
S31508004240002000FF001401400000000000000000EC
S31508004250004000FF001401400000000000000000BC
S31508004260008000FF00180140000000000000000068
S31508004270010000FF001801400000000000000000D7
S31508004280020000FF001801400000000000000000C6
S31508004290040000FF001801400000000000000000B4
S315080042A0080000FF001801400000000000000000A0
S315080042B0100000FF00180140000000000000000088
S315080042C0200000FF00180140000000000000000068
S315080042D0400000FF00180140000000000000000038
S315080042E0800000FF001801400000000000000000E8
S315080042F0000100FF00180140000000000000000057
S31508004300000200FF00180140000000000000000045
S31508004310000400FF00180140000000000000000033
S31508004320000800FF0018014000000000000000001F
S31508004330001000FF00180140000000000000000007
S31508004340002000FF001801400000000000000000E7
S31508004350004000FF001801400000000000000000B7
S31508004360008000FF001C0140000000000000000063
S31508004370010000FF001C01400000000000000000D2
S31508004380020000FF001C01400000000000000000C1
S31508004390040000FF001C01400000000000000000AF
S315080043A0080000FF001C014000000000000000009B
S315080043B0100000FF001C0140000000000000000083
S315080043C0200000FF001C014000000000003C0140E6
S315080043D040000004001C014000000000003C0140B1
S315080043E080000005001C014000000000003C014060
S315080043F000010006001C014000000000003C0140CE
S3150800440000020007001C014000000000003C0140BB
S3150800441000040008001C0140000000000000000025
S31508004420000800FF001C014000000000000000001A
S31508004430001000FF001C0140000000000000000002
S31508004440002000FF001C01400000000000000000E2
S31508004450004000FF001C01400000000000000000B2
S31508004460008000FF0020014000000000000000005E
S31508004470010000FF002001400000000000000000CD
S31508004480020000FF002001400000000000000000BC
S31508004490040000FF002001400000000000000000AA
S315080044A0080000FF00200140000000000000000096
S315080044B0100000FF0020014000000000000000007E
S315080044C0200000FF0020014000000000000000005E
S315080044D0400000FF0020014000000000000000002E
S315080044E0800000FF002001400000000000000000DE
S315080044F0000100FF0020014000000000000000004D
S31508004500000200FF0020014000000000000000003B
S31508004510000400FF00200140000000000000000029
S31508004520000800FF00200140000000000000000015
S31508004530001000FF002001400000000000000000FD
S31508004540002000FF002001400000000000000000DD
S31508004550004000FF002001400000000000000000AD
S31508004560008000FF0000000004FA97999999D93F46
S31508004570AF788E1DC571CC3F9FC678D0099AC33FC8
S31508004580935555555555E53F599322942449D23F9D
S31508004590DE03CB966446C73F44523EDF12F1C23F64
S315080045A0000000000000F03F000000000000F83F97
S315080045B000000000000000000000004003B8E23FD1
S315080045C0000000000000000006D0CF43EBFD4C3E83
S315080045D0033333333333E33FFFAB6FDBB66DDB3F78
S315080045E04D268F515555D53F01411DA96074D13FC0
S315080045F065DBC9934A86CD3FEF4E454A287ECA3FBA
S315080046003E5555555555C53F93BDBE166CC166BF3B
S315080046102CDE25AF6A56113FF16BD2C541BDBBBE34
S31508004620D0A4BE726937663E000000000000000094
S315080046300000000000000000E9250008D92800084D
S31508004640000000000000000000000000000000005C
S315080046500000000000000000000000005D2B0008BC
S31508004660D928000800000000000000000000000033
S315080046705D2B0008D9280008000000005D2B000803
S315080046805D2B00085D2B00085D2B0008000000006C
S31508004690000000000000000000000000000000000C
S315080046A0000000005D2B000800000000000000006C
S315080046B000000000000000000000000000000000EC
S315080046C05D2B0008F446000800000020C800000022
S315080046D0002D0008BC470008C8000020500A00004A
S315080046E0102D000861E6FFFF45E6FFFFADE6FFFF78
S315080046F0DDE6FFFF00000000000000000024F400D3
S315080047000000000000366E01000004000048E801C1
S3150800471000000800005A620200000C00006CDC026F
S3150800472000001000007E5603000014000090D0031D
S315080047300000180000A24A0400001C0000B4C404CB
S315080047400000200000C63E050000240000D8B80579
S315080047500000280000EA320600002C0000FCAC0627
S3150800476000003000000E2707000034000020A107D3
S3150800477000003800000000000102030401020304DF
S31508004780060708090204060800A24A0400000000F9
S3150800479000000000010203040607080900000000E3
S315080047A000000000000000000000000000000000FB
S311080047B0000000000000000000000000EF
S705080000ED05
