S31508000000C00A0020090100081101000813010008B0
S315080000101501000817010008190100080000000072
S315080000200000000000000000000000001B0100089E
S315080000301D010008000000001F010008F107000864
S3150800004023010008230100082301000823010008F2
S3150800005023010008230100087D020008790300082F
S31508000060A1030008C9030008F103000823010008DA
S3150800007023010008230100082301000823010008C2
S3150800008023010008230100082301000823010008B2
S3150800009023010008230100082301000819040008A9
S315080000A023010008050900082301000823010008A8
S315080000B035090008610900089109000823010008AC
S315080000C02301000823010008230100082301000872
S315080000D023010008E9090008F9090008090A0008C7
S315080000E0A50200082301000823010008DFF814D040
S315080000F000F08AF800F03AF800480047AD0D00080D
S3150800010000F060F8C00A0020064880470648004705
S31508000110FEE7FEE7FEE7FEE7FEE7FEE7FEE7FEE7A9
S31508000120FEE7FEE7A5080008ED00000810B5431A2B
S31508000130934209D28318881803E010F8011D03F8C2
S31508000140011D521EF9D210BD40EA01039B0703D0D8
S3150800015009E008C9121F08C0042AFAD203E011F8F8
S31508000160013B00F8013B521EF9D210BD70B5054C93
S31508000170054D03E0206820448047241DAC42F9D190
S3150800018070BD0000800E0008900E00082DE9F041B1
S31508000190074615460E46102000F044FD04000AD016
S315080001A06760C4E9026500F009F801682160046027
S315080001B00020BDE8F0810120FBE7000000487047F9
S315080001C0A00000202DE9F0410646FFF7F7FF80461C
S315080001D0454613E016B1E068B0420ED120682860A3
S315080001E0D4E90101D8F800708847204600F0ECFCF5
S315080001F0D8F80000B842EBD100E025462C68002C60
S31508000200E8D1BDE8F0810000064C074D06E0E0683D
S3150800021040F0010394E8070098471034AC42F6D33F
S31508000220FFF768FF600E0008800E000870470000A0
S3150800023010B500F0E5FA104800684FF47A71B0FB83
S31508000240F1F4601EB0F1807F00D30FE0601E4FF01E
S31508000250E02148610F214FF0FF3000F0A1FC00209B
S315080002604FF0E02188610720086100BF0021481E81
S3150800027000F096FC10BD00007C00002010B500BF01
S31508000280012000F023F940B10548006810B104497F
S3150800029008688047012000F013F900BF10BD000070
S315080002A0A400002010B500BF4FF4806000F00EF9DE
S315080002B048B13048806A10B12E49886A80474FF4A1
S315080002C0806000F0FDF800BF00BF4FF4006000F04A
S315080002D0FDF848B12748C06A10B12649C86A804760
S315080002E04FF4006000F0ECF800BF00BF4FF48050F8
S315080002F000F0ECF848B11F48006B10B11D49086BB7
S3150800030080474FF4805000F0DBF800BF00BF4FF481
S31508000310005000F0DBF848B11648406B10B115499B
S31508000320486B80474FF4005000F0CAF800BF00BF82
S315080003304FF4804000F0CAF848B10E48806B10B1FF
S315080003400C49886B80474FF4804000F0B9F800BF2D
S3150800035000BF4FF4004000F0B9F848B10548C06B3B
S3150800036010B10449C86B80474FF4004000F0A8F864
S3150800037000BF10BDA400002010B500BF022000F089
S31508000380A5F840B10548406810B104494868804757
S31508000390022000F095F800BF10BD0000A400002060
S315080003A010B500BF042000F091F840B105488068F8
S315080003B010B1044988688047042000F081F800BF1E
S315080003C010BD0000A400002010B500BF082000F0F2
S315080003D07DF840B10548C06810B10449C86880472F
S315080003E0082000F06DF800BF10BD0000A400002032
S315080003F010B500BF102000F069F840B10548006943
S3150800040010B1044908698047102000F059F800BF68
S3150800041010BD0000A400002010B500BF202000F089
S3150800042055F840B12548406910B1244948698047C4
S31508000430202000F045F800BF00BF402000F046F835
S3150800044040B11E48806910B11C4988698047402020
S3150800045000F036F800BF00BF802000F037F840B142
S315080004601648C06910B11549C8698047802000F050
S3150800047027F800BF00BF4FF4807000F027F848B196
S315080004800E48006A10B10D49086A80474FF480701B
S3150800049000F016F800BF00BF4FF4007000F016F821
S315080004A048B10648406A10B10449486A80474FF483
S315080004B0007000F005F800BF10BD0000A400002081
S315080004C001490860704700001404014001460020F5
S315080004D00022074B1B6803EA0102054B14331B680D
S315080004E00B4013B10AB1012000E00020704700005C
S315080004F00004014002490143024A116070470000A6
S315080005000000FA050CED00E029B1064A926902439B
S31508000510044B9A6104E0034A92698243014B9A614B
S31508000520704700000010024010B501460022002363
S3150800053000204A11012A02D1094C236806E0022A42
S3150800054002D1074C236A01E0054C636A01F01F02D9
S31508000550012494401C400CB1012000E0002010BD8D
S31508000560001002400248406800F00C007047000086
S315080005700010024001460020034A506820F0F000AF
S31508000580084350607047000000100240114909688E
S3150800059021F480310F4A11601146096821F480213F
S315080005A01160B0F5803F03D0B0F5802F0ED106E07C
S315080005B00849096841F48031064A116007E005498F
S315080005C0096841F4A021034A116000E000BF00BF9A
S315080005D0704700000010024001460020034A506898
S315080005E020F4E060084350607047000000100240A5
S315080005F001460020034A506820F4605040EAC100D2
S3150800060050607047001002400149086670470000B4
S315080006100000424202460020044B586820F47C1031
S3150800062042EA01031843014B586070470010024024
S3150800063001460020034A506820F003000843506032
S31508000640704700000010024038B5002000900024D2
S31508000650002500BF3120FFF767FF05460098401CBC
S3150800066000900098B0F5A06F01D0002DF2D031208F
S31508000670FFF75AFF08B1012400E00024204638BDE0
S3150800068010B500F001F810BD0CB5002001900090DF
S315080006903348006840F480303149086000BF30486C
S315080006A0006800F4003000900198401C0190009802
S315080006B018B90198B0F5A06FF1D12948006800F47F
S315080006C0003010B10120009001E000200090009851
S315080006D0012843D12348006840F0100021490860EA
S315080006E00846006820F0030008600846006840F0E5
S315080006F0020008601A484068194948600846406878
S3150800070048600846406840F480604860084640688B
S3150800071020F47C1048600846406840F4E8104860B9
S315080007200846006840F08070086000BF0C48006802
S3150800073000F000700028F9D00948406820F003004E
S31508000740074948600846406840F00200486000BF14
S315080007500348406800F00C000828F9D10CBD0000D9
S31508000760001002400020024010B504461E4850F80A
S3150800077034001E4908600020FFF75AFF00BFFFF744
S31508000780F1FE0028FBD1FFF7F5FE4FF48060FFF776
S3150800079023FF0020FFF72CFF0020FFF735FF4FF45B
S315080007A08030FFF7F3FEFFF74FFF0F4800EBC4005A
S315080007B041684FF48030FFF72DFF0120FFF724FF33
S315080007C000BF3920FFF7B0FE0028FAD00220FFF755
S315080007D02FFF00BFFFF7C6FE0828FBD101210846F8
S315080007E0FFF792FE10BD0000040000207C000020E8
S315080007F002480068401C0149086070470000002054
S3150800080010B5002100200022214B5B6803F00C0183
S3150800081021B1042906D0082928D107E01D4B1E4C12
S31508000820236027E01B4B1C4C236023E0184B5B68B6
S3150800083003F47010164B5B6803F48032022303EB53
S31508000840904022B9154B4343134C23600DE0104BDF
S315080008505B6803F4003323B1104B43430E4C23600B
S3150800086003E00C4B43430C4C236003E0094B0A4C52
S31508000870236000BF00BF064B5B68C3F30313084C35
S31508000880E15C054B1B68CB40034C236010BD0000A0
S315080008900010024000127A007C00002000093D008A
S315080008A08000002010B51348006840F00100114987
S315080008B0086008464068104908400E4948600846DE
S315080008C000680E4908400B4908600846006820F48D
S315080008D0802008600846406820F4FE0048604FF40F
S315080008E01F008860FFF7CCFE4FF0006004490860DF
S315080008F010BD0000001002400000FFF8FFFFF6FEE2
S3150800090008ED00E010B500BF0121084800F05BF8CB
S3150800091048B10748006810B10549086880470121B1
S31508000920024800F04DF800BF10BD0000002C014041
S31508000930E400002010B500BF0121880700F043F845
S3150800094048B10648406810B1044948688047012103
S31508000950880700F035F800BF10BD0000E40000204D
S3150800096010B500BF0121084800F02DF848B1074826
S31508000970806810B10549886880470121024800F05F
S315080009801FF800BF10BD000000040040E40000206E
S3150800099010B500BF0121084800F015F848B107480E
S315080009A0C06810B10549C86880470121024800F0AF
S315080009B007F800BF10BD000000080040E400002052
S315080009C0CA430282704730B502460020002300243D
S315080009D0158A05EA0103958905EA010413B10CB1E4
S315080009E0012000E0002030BD10B5024800F054F8A0
S315080009F010BD00000401002010B5024800F04CF8B4
S31508000A0010BD0000A001002010B5024800F044F80F
S31508000A1010BD00003C02002010B50022002340F65D
S31508000A206A14A14200D100BF0A1201249440A3B25D
S31508000A30DC43048010BD70B502460024002300255F
S31508000A40002040F66A16B14200D100BFC1F3421534
S31508000A5001F01F03012606FA03F3012D02D1968938
S31508000A60334006E0022D02D1168A334001E0968A09
S31508000A7033400C12012606FA04F41688344013B1E2
S31508000A800CB1012000E0002070BD01468888C0F343
S31508000A90080070477047704770B5044640F2255104
S31508000AA02069FFF7C8FFF8B12069FFF7EEFFC6B265
S31508000AB0218B491C88B2C11700EB5161C911A0EB03
S31508000AC0C1118DB2608BA84204D0218B04F11C00A1
S31508000AD046542583606908B16069804740F225510C
S31508000AE02069FFF799FF00BF70BD000000BF094AE3
S31508000AF002600022426000BF074A02604FF47A7221
S31508000B00826000BF054A0260016100224261428399
S31508000B1002837047F80D00080C0E0008D40D000873
S31508000B2010B5064C046000BF054C046080F85430CC
S31508000B3080F8551080F8562010BD0000400E0008B9
S31508000B40300E000805490160002180F8551080F82C
S31508000B50561000BF00BF00BF70470000300E0008E7
S31508000B60016070472DE9F04104460D4616461F46BA
S31508000B70DDF81880204600F00DF804460448206089
S31508000B8025716671A77184F807802046BDE8F08153
S31508000B90500E000801490160704700005C0E00080D
S31508000BA010B5002804DB0A07130E054A135406E09D
S31508000BB00A07140E034A00F00F031B1FD45410BD76
S31508000BC000E400E018ED00E030B528B1144C031F2E
S31508000BD0002021680A4605E0084630BD9A4203D837
S31508000BE010465268002AF9D1002800D041680BD077
S31508000BF00468A3EB0005A54204D11B681C44034600
S31508000C00046002E0436000E023603AB11C68D51A2C
S31508000C10A54203D115682C441C6052685A6030BD41
S31508000C20980000202DE9F04782460F4C10480D4EDB
S31508000C300E4F001B4FF0000820F007054FF0010982
S31508000C4000221146504600F089F8002802D1306883
S31508000C5010B10020BDE8F0873C60C4E90058C6F82A
S31508000C600090EDE79C000020C404002098000020B6
S31508000C70C006002002E008C8121F08C1002AFAD1DF
S31508000C8070477047002001E001C1121F002AFBD1FE
S31508000C907047000008B5002003460246014600904A
S31508000CA00148FFF75FFF08BD9000002000B50A491C
S31508000CB00A48FFF71BFF0A490A48FFF717FF0A49C0
S31508000CC00A48FFF713FF0A490A48FFF70FFF0A49C0
S31508000CD00A48FFF70BFF00BD003801400401002059
S31508000CE000440040A0010020004800403C020020CB
S31508000CF0004C0040D8020020005000407403002039
S31508000D0000B506490648FFF72BFF06490648FFF7D0
S31508000D1027FF06490648FFF723FF00BD00300140BC
S31508000D2010040020003800402C040020003C00403D
S31508000D304804002010B50023172216210448FFF79F
S31508000D40EFFE0446034A0449FFF720FA10BD0000E7
S31508000D506404002000000008450B00082DE9F04156
S31508000D600B3020F00706104D19E02068B04215D365
S31508000D70B0420AD9871B201DD4F80480FFF7D6F99C
S31508000D80A019C0E90078286004E060682860201D82
S31508000D90FFF7CCF9201D2660BDE8F081251D2C68DB
S31508000DA0002CE2D10020F7E7980000204FF4A0605D
S31508000DB0FFF7A0FB0720FFF7D7FCFFF739FAFFF785
S31508000DC06AFE00BFFFF766FEFCE7000000000000B1
S31508000DD00000000000000000000000000000000005
S31508000DE000000000000000000000000000000000F5
S31508000DF000000000000000000000000000000000E5
S31508000E0000000000000000000000000000000000D4
S31508000E1000000000000000000000000000000000C4
S31508000E2000000000000000000000000000000000B4
S31508000E3000000000000000000000000000000000A4
S31508000E400000000000000000000000000000000094
S31508000E500000000000000000000000000000000084
S31508000E60900E000800000020A4000000740C000882
S31508000E70340F0008A40000201C0A0000840C000897
S31508000E802DFEFFFF11FEFFFF79FEFFFFA9FEFFFF04
S31508000E90000000000024F4000000000000366E0187
S31508000EA0000004000048E80100000800005A620239
S31508000EB000000C00006CDC0200001000007E5603E7
S31508000EC0000014000090D0030000180000A24A0495
S31508000ED000001C0000B4C4040000200000C63E0543
S31508000EE00000240000D8B8050000280000EA3206F1
S31508000EF000002C0000FCAC0600003000000E27079E
S31508000F00000034000020A1070000380000A24A04AF
S31508000F10000000000000000001020304060708099B
S31508000F2000000000000000000000000000000000B3
S30908000F3000000000AF
S705080000ED05
