:020000040800F2
:10000000D00A0020090100081101000813010008AE
:100010001501000817010008190100080000000080
:100020000000000000000000000000001B010008AC
:100030001D010008000000001F0100086D0A0008F3
:100040002301000823010008230100082301000800
:1000500023010008230100087D020008790300083D
:10006000A1030008C9030008F103000823010008E8
:1000700023010008230100082301000823010008D0
:1000800023010008230100082301000823010008C0
:1000900023010008230100082301000819040008B7
:1000A00023010008810B0008230100082301000838
:1000B000B10B0008DD0B00080D0C0008230100083F
:1000C0002301000823010008230100082301000880
:1000D00023010008650C0008750C0008850C000859
:1000E000A50200082301000823010008DFF814D04E
:1000F00000F08AF800F03AF8004800475D14000864
:1001000000F061F8D00A0020064880470648004702
:10011000FEE7FEE7FEE7FEE7FEE7FEE7FEE7FEE7B7
:10012000FEE7FEE7210B0008ED00000810B5431ABA
:10013000934209D28318881803E010F8011D03F8D0
:10014000011D521EF9D210BD40EA01039B0703D0E6
:1001500009E008C9121F08C0042AFAD203E011F806
:10016000013B00F8013B521EF9D210BD70B5054CA1
:10017000054D03E0206820448047241DAC42F9D19E
:1001800070BD000030150008401500082DE9F04151
:10019000074615460E46102001F090F804000AD0DC
:1001A0006760C4E9026500F009F801682160046035
:1001B0000020BDE8F0810120FBE700000048704707
:1001C000B400002070472DE9F0410646FFF7F6FF26
:1001D0008046454613E016B1E068B0420ED1206873
:1001E0002860D4E90101D8F800708847204601F062
:1001F00037F8D8F80000B842EBD100E025462C686B
:10020000002CE8D1BDE8F081064C074D06E0E0681F
:1002100040F0010394E8070098471034AC42F6D34D
:10022000FFF768FF10150008301500087047000040
:1002300010B500F023FC104800684FF47A71B0FB51
:10024000F1F4601EB0F1807F00D30FE0601E4FF02C
:10025000E02148610F214FF0FF3000F0E9FF00205E
:100260004FF0E02188610720086100BF0021481E8F
:1002700000F0DEFF10BD00009000002010B500BFB0
:10028000012000F023F940B10548006810B104498D
:1002900008688047012000F013F900BF10BD00007E
:1002A000B800002010B500BF4FF4806000F00EF9D8
:1002B00048B13048806A10B12E49886A80474FF4AF
:1002C000806000F0FDF800BF00BF4FF4006000F058
:1002D000FDF848B12748C06A10B12649C86A80476E
:1002E0004FF4006000F0ECF800BF00BF4FF4805006
:1002F00000F0ECF848B11F48006B10B11D49086BC5
:1003000080474FF4805000F0DBF800BF00BF4FF48F
:10031000005000F0DBF848B11648406B10B11549A9
:10032000486B80474FF4005000F0CAF800BF00BF90
:100330004FF4804000F0CAF848B10E48806B10B10D
:100340000C49886B80474FF4804000F0B9F800BF3B
:1003500000BF4FF4004000F0B9F848B10548C06B49
:1003600010B10449C86B80474FF4004000F0A8F872
:1003700000BF10BDB800002010B500BF022000F083
:10038000A5F840B10548406810B104494868804765
:10039000022000F095F800BF10BD0000B80000205A
:1003A00010B500BF042000F091F840B10548806806
:1003B00010B1044988688047042000F081F800BF2C
:1003C00010BD0000B800002010B500BF082000F0EC
:1003D0007DF840B10548C06810B10449C86880473D
:1003E000082000F06DF800BF10BD0000B80000202C
:1003F00010B500BF102000F069F840B10548006951
:1004000010B1044908698047102000F059F800BF76
:1004100010BD0000B800002010B500BF202000F083
:1004200055F840B12548406910B1244948698047D2
:10043000202000F045F800BF00BF402000F046F843
:1004400040B11E48806910B11C498869804740202E
:1004500000F036F800BF00BF802000F037F840B150
:100460001648C06910B11549C8698047802000F05E
:1004700027F800BF00BF4FF4807000F027F848B1A4
:100480000E48006A10B10D49086A80474FF4807029
:1004900000F016F800BF00BF4FF4007000F016F82F
:1004A00048B10648406A10B10449486A80474FF491
:1004B000007000F005F800BF10BD0000B80000207B
:1004C0000149086070470000140401400146002003
:1004D0000022074B1B6803EA0102054B14331B681B
:1004E0000B4013B10AB1012000E00020704700006A
:1004F000000401402DE9F0410246002500260020BD
:1005000000230024002791F803C00CF00F0591F898
:1005100003C00CF0100CBCF1000F03D091F802C026
:100520004CEA050591F800C0BCF1000F31D0146809
:1005300000202BE04FF0010C0CFA00F3B1F800C0E2
:100540000CEA03069E4220D183004FF00F0C0CFAF8
:1005500003F7BC4305FA03FC4CEA040491F803C01A
:10056000BCF1280F06D14FF0010C0CFA00FCC2F8C8
:1005700014C00AE091F803C0BCF1480F05D14FF058
:10058000010C0CFA00FCC2F810C0401C0828D1D3A2
:100590001460B1F800C0BCF1FF0F34DD54680020D6
:1005A0002EE000F1080C4FF0010808FA0CF3B1F846
:1005B00000C00CEA03069E4221D183004FF00F0CCD
:1005C0000CFA03F7BC4305FA03FC4CEA040491F867
:1005D00003C0BCF1280F05D100F1080C08FA0CF893
:1005E000C2F8148091F803C0BCF1480F07D100F1A4
:1005F000080C4FF0010808FA0CF8C2F81080401CF3
:100600000828CED35460BDE8F081000070B5002109
:1006100000230F22C47804B3154C246804F4E0646A
:10062000C4F5E064210AC1F10403CA40447804FA25
:1006300003F184781440214309010E4C0678A1553A
:10064000047804F01F050124AC4005786D11AD005D
:1006500005F1E025C5F8004109E0047804F01F0524
:100660000124AC40044D0678761145F8264070BD53
:100670000CED00E000E400E080E100E0024901430D
:10068000024A1160704700000000FA050CED00E01E
:1006900029B1064AD2690243044BDA6104E0034AF5
:1006A000D2698243014BDA617047000000100240BA
:1006B00029B1064A92690243044B9A6104E0034A55
:1006C00092698243014B9A6170470000001002401A
:1006D00030B500210022002400232D4D6D6805F067
:1006E0000C0121B1042905D0082923D105E0294DA9
:1006F000056022E0274D05601FE0254D6D6805F47B
:100700007012234D6D6805F48034022505EB92428A
:100710001CB9214D554305600BE01D4D6D6805F476
:1007200000351DB11C4D5543056002E0194D554380
:10073000056002E0174D056000BF00BF144D6D68F5
:1007400005F0F0010909154D6B5C0568DD40456059
:100750000F4D6D6805F4E061090A104D6B5C45684A
:10076000DD4085600A4D6D6805F46051C90A0B4D86
:100770006B5C4568DD40C560054D6D6805F4404122
:10078000890B074D6B5CC568B5FBF3F5056130BDA2
:100790000010024000127A0000093D007C00002099
:1007A0008C00002010B501460022002300204A11D1
:1007B000012A02D1094C236806E0022A02D1074C23
:1007C000236A01E0054C636A01F01F020124944092
:1007D0001C400CB1012000E0002010BD00100240C0
:1007E0000248406800F00C00704700000010024012
:1007F00001460020034A506820F0F0000843506092
:1008000070470000001002401149096821F480314E
:100810000F4A11601146096821F480211160B0F57A
:10082000803F03D0B0F5802F0ED106E0084909685B
:1008300041F48031064A116007E00549096841F436
:10084000A021034A116000E000BF00BF7047000014
:100850000010024001460020034A506820F4E06086
:10086000084350607047000000100240014600201D
:10087000034A506820F4605040EAC100506070475D
:100880000010024001490866704700000000424223
:1008900002460020044B586820F47C1042EA010311
:1008A0001843014B58607047001002400146002079
:1008B000034A506820F0030008435060704700006E
:1008C0000010024038B5002000900024002500BF31
:1008D0003120FFF767FF05460098401C0090009804
:1008E000B0F5A06F01D0002DF2D03120FFF75AFFF4
:1008F00008B1012400E00024204638BD10B500F006
:1009000001F810BD0CB5002001900090334800683C
:1009100040F480303149086000BF3048006800F47E
:10092000003000900198401C0190009818B901987F
:10093000B0F5A06FF1D12948006800F4003010B183
:100940000120009001E0002000900098012843D190
:100950002348006840F010002149086008460068FC
:1009600020F0030008600846006840F002000860BC
:100970001A48406819494860084640684860084677
:10098000406840F4806048600846406820F47C106D
:1009900048600846406840F4E8104860084600682F
:1009A00040F08070086000BF0C48006800F00070E4
:1009B0000028F9D00948406820F003000749486042
:1009C0000846406840F00200486000BF03484068A5
:1009D00000F00C000828F9D10CBD00000010024006
:1009E0000020024010B504461E4850F834001E494D
:1009F00008600020FFF75AFF00BFFFF7F1FE002854
:100A0000FBD1FFF7F5FE4FF48060FFF723FF0020D6
:100A1000FFF72CFF0020FFF735FF4FF48030FFF782
:100A2000F3FEFFF74FFF0F4800EBC40041684FF49F
:100A30008030FFF72DFF0120FFF724FF00BF392092
:100A4000FFF7B0FE0028FAD00220FFF72FFF00BF0B
:100A5000FFF7C6FE0828FBD101210846FFF728FE54
:100A600010BD000004000020900000200248006833
:100A7000401C0149086070470000002010B50021AB
:100A800000200022214B5B6803F00C0121B10429F6
:100A900006D0082928D107E01D4B1E4C236027E013
:100AA0001B4B1C4C236023E0184B5B6803F4701055
:100AB000164B5B6803F48032022303EB904022B9AB
:100AC000154B4343134C23600DE0104B5B6803F45C
:100AD000003323B1104B43430E4C236003E00C4B17
:100AE00043430C4C236003E0094B0A4C236000BFD6
:100AF00000BF064B5B68C3F30313084CE15C054B76
:100B00001B68CB40034C236010BD00000010024066
:100B100000127A009000002000093D00940000209F
:100B200010B51348006840F00100114908600846FC
:100B30004068104908400E494860084600680E4960
:100B400008400B4908600846006820F480200860CF
:100B50000846406820F4FE0048604FF41F0088609B
:100B6000FFF7CCFE4FF000600449086010BD0000A4
:100B7000001002400000FFF8FFFFF6FE08ED00E065
:100B800010B500BF0121084800F05BF848B10748E4
:100B9000006810B10549086880470121024800F04B
:100BA0004DF800BF10BD0000002C0140F8000020EF
:100BB00010B500BF0121880700F043F848B106488E
:100BC000406810B10449486880470121880700F057
:100BD00035F800BF10BD0000F800002010B500BFC0
:100BE0000121084800F02DF848B10748806810B18D
:100BF0000549886880470121024800F01FF800BFBE
:100C000010BD000000040040F800002010B500BF37
:100C10000121084800F015F848B10748C06810B134
:100C20000549C86880470121024800F007F800BF65
:100C300010BD000000080040F8000020CA430282F6
:100C4000704730B50246002000230024158A05EACB
:100C50000103958905EA010413B10CB1012000E0FC
:100C6000002030BD10B5024800F056F910BD00005C
:100C70001801002010B5024800F04EF910BD000028
:100C8000B401002010B5024800F046F910BD000084
:100C90005002002010B50022002340F66A14A14241
:100CA00000D100BF0A1201249440A3B2DC430480A7
:100CB00010BD21B1828942F40052828104E0828910
:100CC0004DF6FF731A408281704702460020B1F54D
:100CD000007F00D100BF13880B400BB1012000E062
:100CE0000020704770B50246002400230025002034
:100CF00040F66A16B14200D100BFC1F3421501F0BF
:100D00001F03012606FA03F3012D02D19689334011
:100D100006E0022D02D1168A334001E0968A334064
:100D20000C12012606FA04F41688344013B10CB1F3
:100D3000012000E0002070BDF0B50346002400262D
:100D40000025002040F66A17B94200D100BF1846BE
:100D5000C1F3421401F01F06012707FA06F5012C22
:100D600001D10C3004E0022C01D1103000E014302D
:100D70001AB107682F43076002E00768AF430760B6
:100D8000F0BD00002DE9F04786B005460E46002470
:100D9000A24600BFA1460027B08900B100BF2F4680
:100DA0002C8A4CF6FF700440F08804432C82AC89F6
:100DB0004EF6F3100440B088318908437189084326
:100DC0000443AC81AC8A4FF6FF400440B089044331
:100DD000AC8201A8FFF77CFC1F48874202D1DDF8F6
:100DE00010A001E0DDF80CA0A88900F4004040B19B
:100DF0000AEBCA0000EB0A1031684900B0FBF1F8B9
:100E000007E00AEBCA0000EB0A1031688900B0FB6A
:100E1000F1F86420B8FBF0F004012009642101FB23
:100E20001089A88900F4004040B1322000EBC900CD
:100E3000B0FBF1F000F00700044308E0322000EBC3
:100E400009106421B0FBF1F000F00F0004432C8185
:100E500006B0BDE8F08700000038014001468888F0
:100E6000C0F308007047C1F3080282807047000099
:100E700010B50CA10C4800F081F90CA10C4800F051
:100E80007DF90CA10C4800F079F90CA10C4800F098
:100E900075F90CA10C4800F071F94FF47A7000F06C
:100EA000A9FA10BD31000000180100203200000036
:100EB000B401002033000000500200203400000084
:100EC000EC020020350000008803002010B54FF42C
:100ED00016510C4800F049F84FF416510A4800F03A
:100EE00044F84FF41651094800F03FF84FF41651FA
:100EF000074800F03AF84FF41651064800F035F86C
:100F000010BD000018010020B40100205002002094
:100F1000EC0200208803002070B5044640F2255101
:100F20002069FFF7DFFEF8B12069FFF797FFC6B22F
:100F3000218B491C88B2C11700EB5161C911A0EB8C
:100F4000C1118DB2608BA84204D0218B04F11C002A
:100F500046542583606908B16069804740F2255195
:100F60002069FFF797FE00BF70BD70B504460D46BF
:100F700000222946204600F001F870BDF8B504466D
:100F80000D4616460320012332462946009020468E
:100F900000F002F8F8BD00002DE9F04F87B00446DC
:100FA0008A4691469B465749206988420BD10121C8
:100FB00044F20400FFF77CFB4FF400767700524DBB
:100FC0004FF025084DE05149206988420DD101219B
:100FD0004804FFF75DFB01210420FFF769FB0426AD
:100FE0000827494D4FF026083BE0494920698842CF
:100FF0000ED101218804FFF74BFB01210820FFF7E8
:1010000057FB4FF480667700424D4FF0270828E0E9
:101010004149206988420ED10121C804FFF738FBFD
:1010200001211020FFF744FB4FF4806677003B4D11
:101030004FF0340815E03A492069884211D1012166
:101040000805FFF725FB01211020FFF731FB0121E7
:101050002020FFF72DFB4FF4805604272F4D4FF033
:101060003408ADF8186003208DF81A0018208DF8A8
:101070001B0006A92846FFF73DFAADF818700420BA
:101080008DF81B0026492069884204D106A925480D
:10109000FFF730FA03E006A92846FFF72BFA8DF890
:1010A00004808DF805B010988DF8060001208DF8A9
:1010B000070001A8FFF7AAFACDF808A009F47040CC
:1010C000ADF80C0009F47060ADF8100009F0F00004
:1010D0000002ADF80E000020ADF814000C20ADF8B1
:1010E000120002A92069FFF74DFE012240F22551AE
:1010F0002069FFF721FE01212069FFF7DAFD07B023
:10110000BDE8F08F00380140000801400044004075
:1011100000480040000C0140004C0040001001401D
:10112000005000400014014070B504460D4600BF59
:1011300080212069FFF7C9FD0028F9D029462069E0
:10114000FFF791FE012070BD00BF094A0260002236
:10115000426000BF074A02604FF47A72826000BFAB
:10116000054A0260016100224261428302837047A6
:10117000A8140008BC1400088414000870B50446C4
:101180000D462068294642682046904770BD70B5DC
:1011900005460C46002606E014F8011B2868026884
:1011A00028469047761C20780028F5D1304670BD3F
:1011B00010B5064C046000BF054C046080F8543044
:1011C00080F8551080F8562010BD0000F01400087B
:1011D000E014000805490160002180F8551080F8EE
:1011E000561000BF00BF00BF70470000E0140008A9
:1011F000016070472DE9F04104460D4616461F4632
:10120000DDF81880204600F00DF804460448206000
:1012100025716671A77184F807802046BDE8F081CA
:101220000015000801490160704700000C15000816
:1012300010B5002804DB0A07130E054A135406E014
:101240000A07140E034A00F00F031B1FD45410BDED
:1012500000E400E018ED00E00020FEF7B3BF00005E
:1012600030B528B1144C031F002021680A4605E060
:10127000084630BD9A4203D810465268002AF9D178
:10128000002800D041680BD00468A3EB0005A542FC
:1012900004D11B681C440346046002E0436000E084
:1012A00023603AB11C68D51AA54203D115682C44B5
:1012B0001C6052685A6030BDAC0000202DE9F04738
:1012C00082460F4C10480D4E0E4F001B4FF0000889
:1012D00020F007054FF0010900221146504600F0AA
:1012E00095F8002802D1306810B10020BDE8F087E1
:1012F0003C60C4E90058C6F80090EDE7B00000205B
:10130000D4040020AC000020D006002002E008C871
:10131000121F08C1002AFAD170477047002001E06F
:1013200001C1121F002AFBD17047000008B5002040
:1013300003460246014600900148FFF75BFF08BDE7
:10134000A400002000B50A490A48FFF7FDFE0A493B
:101350000A48FFF7F9FE0A490A48FFF7F5FE0A496D
:101360000A48FFF7F1FE0A490A48FFF7EDFE00BD03
:10137000003801401801002000440040B401002062
:101380000048004050020020004C0040EC020020C9
:10139000005000408803002000B506490648FFF7CA
:1013A00027FF06490648FFF723FF06490648FFF7CF
:1013B0001FFF00BD00300140240400200038004021
:1013C00040040020003C00405C04002010B50023D5
:1013D000172216210448FFF7EBFE0446034A04498E
:1013E000FEF7D4FE10BD00007804002000000008C5
:1013F000D5110008044A1268111800BF024A126889
:101400008A42FBD370470000000000202DE9F04124
:101410000B3020F00706104D19E02068B04215D3BC
:10142000B0420AD9871B201DD4F80480FEF77EFE47
:10143000A019C0E90078286004E060682860201DD9
:10144000FEF774FE201D2660BDE8F081251D2C6886
:10145000002CE2D10020F7E7AC0000204FF4A060A0
:10146000FFF70CF90720FFF7BDFAFEF7E1FEFFF7E3
:101470002DFD00BFFFF7FCFCFCE7000000000000B2
:1014800000000000291100088F1100080000000072
:10149000000000000000000000000000000000004C
:1014A0000000000000000000591200088F11000821
:1014B00000000000000000000000000059120008B9
:1014C0008F1100080000000059120008591200088E
:1014D0005912000859120008000000000000000026
:1014E00000000000000000000000000000000000FC
:1014F0005912000800000000000000000000000079
:101500000000000000000000000000005912000868
:101510004015000800000020B80000000C1300086F
:10152000F8150008B8000020180A00001C13000875
:1015300015FEFFFFF9FDFFFF61FEFFFF91FEFFFFBC
:10154000000000000024F4000000000000366E01DE
:10155000000004000048E80100000800005A620290
:1015600000000C00006CDC0200001000007E56033E
:10157000000014000090D0030000180000A24A04EC
:1015800000001C0000B4C4040000200000C63E059A
:101590000000240000D8B8050000280000EA320648
:1015A00000002C0000FCAC0600003000000E2707F5
:1015B000000034000020A1070000380000000000F7
:1015C00001020304010203040607080902040608D5
:1015D00000A24A0400000000000000000102030411
:1015E00006070809000000000000000000000000DD
:0815F0000000000000000000F3
:04000005080000ED02
:00000001FF
