S31508000000D00A0020090100081101000813010008A0
S315080000101501000817010008190100080000000072
S315080000200000000000000000000000001B0100089E
S315080000301D010008000000001F010008AD1100089E
S3150800004023010008230100082301000823010008F2
S31508000050230100082301000885090008810A000811
S31508000060A90A0008D10A0008F90A000823010008AD
S3150800007023010008230100082301000823010008C2
S3150800008023010008230100082301000823010008B2
S31508000090230100082301000823010008210B00089A
S315080000A023010008C11200082301000823010008E3
S315080000B0F11200081D1300084D130008230100085B
S315080000C02301000823010008230100082301000872
S315080000D023010008A5130008B5130008C513000876
S315080000E0AD0900082301000823010008DFF814D031
S315080000F000F01AFB00F06CF8004800476925000874
S3150800010000F07BFAD00A00200648804706480047D8
S31508000110FEE7FEE7FEE7FEE7FEE7FEE7FEE7FEE7A9
S31508000120FEE7FEE761120008ED0000082DE9F05F22
S315080001300546002092469B46884606468146402448
S315080001401BE0284641464746224600F02EFA53460B
S315080001505A46C01A914110D311461846224600F055
S3150800016015FA2D1A67EB01084F4622460120002191
S3150800017000F00CFA17EB00094E41201EA4F1010409
S31508000180DFDC484631462A464346BDE8F09F10B5AF
S31508000190431A934209D28318881803E010F8011D00
S315080001A003F8011D521EF9D210BD40EA01039B0750
S315080001B003D009E008C9121F08C0042AFAD203E0CE
S315080001C011F8013B00F8013B521EF9D210BD0000A0
S315080001D070B5054C054D03E0206820448047241D72
S315080001E0AC42F9D170BD00003C2600084C26000838
S315080001F02DE9F041074615460E46102001F080FC11
S3150800020004000AD06760C4E9026500F0F1F90168E4
S31508000210216004600020BDE8F0810120FBE72DE99C
S31508000220FE4F804681EA0300C00F0C46009021F07D
S31508000230004123F00045B8EB0200A94105D240462B
S31508000240214690461C460B46024623F000401043C2
S3150800025047D0270DC7F30A00C3F30A510290401A84
S31508000260019040286BDAC3F3130040F4801B009812
S31508000270924620B10023D2EB030A63EB0B0B0198DD
S315080002805946C0F14002504600F080F906460D4630
S3150800029050465946019A00F098F910EB080061415A
S315080002A0002487EA115284EAE7731A4340D0009A79
S315080002B062B3019A012A4FEA075215DC001B61EB6B
S315080002C002014FF0004202EA0752CDE90042001C43
S315080002D041F5801132462B4600F0BFF903B0BDE860
S315080002E0F08F40462146F9E7001B61EB0201001C2E
S315080002F041F5801300185B412018A2F5001747EB5B
S31508000300030140EAD570B6196D4111E06D084FEA50
S31508000310360645EAC0754FEA0752001B61EB020133
S31508000320001C41F5801149084FEA30000019514177
S3150800033032462B4603B0BDE8F04F00F07FB900986F
S31508000340012240000023D0EB020263EBE073009821
S3150800035021464FEAE074B8EB000061EB0401E9E7D7
S3150800036083F000435BE781F0004158E72DE9FE4F33
S3150800037081EA030404F0004421F0004100944FF0A0
S31508000380000B23F0004350EA01045ED052EA03044E
S315080003905BD0C3F30A54C1F30A552C44A4F2F334D0
S315080003A00194A0FB0254C1F3130141F48011C3F375
S315080003B0130343F4801301FB024400FB034E840A33
S315080003C0970A44EA815447EA8357A4FB07680295CB
S315080003D08D0A05FB07854FEA932C04FB0C54270569
S315080003E0029D4FEA065847EA1637B5EB08056EEB45
S315080003F0070C870E920E47EA811742EA8312A7FB7B
S315080004000201B6EB0B0164EB00042B0D43EA0C3337
S315080004105E1844EB1C50DA465146E7FB0201C5F369
S3150800042013044FEA0B3343EA14534FEA0432019C90
S3150800043043EA0603A4F10C040294009CCDE900B437
S3150800044000F00BF903B0BDE8F08F00200146F9E78C
S315080004502DE9F04D81EA030404F0004B21F0004534
S3150800046014464FF0000A23F0004150EA050220D056
S3150800047054EA01021DD0C5F30A570246C5F3130311
S31508000480C1F31300C1F30A5640F4801543F48013F0
S31508000490A7EB0608101BD64608F2FD3873EB0500D5
S315080004A002D308F1010801E092185B41B8F1000F88
S315080004B003DA00200146BDE8F08D00204FF48011D4
S315080004C0064684460EE0171B73EB050705D3121B79
S315080004D063EB050306434CEA010C49084FEA300072
S315080004E092185B4150EA0107EDD152EA030012D097
S315080004F082EA040083EA0501084305D0101BAB41D4
S3150800050006D20122002306E000224FF0004302E053
S315080005106FF0010253101AEB06004CEB085110EB72
S315080005200A0041EB0B01BDE8F04D00F087B800006A
S3150800053030B5041E71F1000404DB4FF0004440425C
S3150800054064EB0101141E73F1000405DB1C464FF031
S315080005500043524263EB0403994208BF904230BD00
S3150800056030B50B46014600202022012409E021FA75
S3150800057002F59D4205D303FA02F5491B04FA02F572
S315080005802844151EA2F10102F1DC30BD202A04DB45
S31508000590203A00FA02F1002070479140C2F1200388
S315080005A020FA03F3194390407047202A04DB203AC7
S315080005B021FA02F00021704721FA02F3D040C2F175
S315080005C020029140084319467047202A06DBCB17BC
S315080005D0203A41FA02F043EAE07306E041FA02F3F0
S315080005E0D040C2F1200291400843194670470000E6
S315080005F000487047B400002070472DE9F0410646D0
S31508000600FFF7F6FF8046454613E016B1E068B042AC
S315080006100ED120682860D4E90101D8F8007088470F
S31508000620204601F03FFAD8F80000B842EBD100E0C6
S3150800063025462C68002CE8D1BDE8F08110B5141EBB
S3150800064073F1000408DA401C41F1000192185B417D
S315080006501A4301D120F0010010BD2DE9F04D924654
S315080006609B4611B1B1FA81F202E0B0FA80F220326B
S315080006709046FFF78BFF04460F4640EA0A0041EA18
S315080006800B0153465A46084313D0114653EA010054
S3150800069019D0C8F140025046FFF787FF05460E46B7
S315080006A0504659464246FFF771FF084305D00120D8
S315080006B004E020463946BDE8F08D0020054346EAA9
S315080006C0E0762C4337430A986305E40AA0EB080052
S315080006D00022FD0A44EA47540A3002D500200146A2
S315080006E0E9E7010510196941DDE90845001969417D
S315080006F0BDE8F04DA2E7C1F30A52C1F3130140F277
S31508000700FF3341F480119A4202DA0020014670470D
S3150800071040F233439A42A2F2334202DC5242FFF7D6
S3150800072044BFFFF733BF0000064C074D06E0E068FC
S3150800073040F0010394E8070098471034AC42F6D31A
S31508000740FFF7D8FC1C2600083C260008704721B194
S31508000750826842F00102826003E0826822F00102A8
S315080007608260704710B504461248844208D10121B8
S31508000770401500F03DFB0021601500F039FB17E03D
S315080007800D48844208D10121001500F031FB0021F3
S31508000790201500F02DFB0BE00848844208D1012102
S315080007A0C80300F025FB00214FF4004000F020FBB1
S315080007B010BD00000024014000280140003C014013
S315080007C0014600208A6802F004020AB1012000E00E
S315080007D0002070470146C86C80B270470246002068
S315080007E013680B400BB1012000E00020704701465A
S315080007F000208A6802F008020AB1012000E0002001
S315080008007047000030B502460020002350680F4CA0
S3150800081020400D790C6844EA05242043506090680E
S315080008200B4C2040D1E902542C434D7944EA450447
S3150800083020439060D06A20F470000C7C641EE4B2F9
S31508000840234340EA0350D06230BD0000FFFEF0FFAC
S31508000850FDF7F1FFF0B504460D4600200021092DED
S3150800086011DDE068A5F10A0606EB4607072606FA33
S3150800087007F18843A5F10A0606EB460603FA06F1D0
S315080008800843E0600CE0206905EB4507072606FAF1
S3150800089007F1884305EB450603FA06F1084320618C
S315080008A0072A0FDA606B561E06EB86071F2606FA1E
S315080008B007F18843561E06EB860605FA06F1084335
S315080008C0606322E00D2A0FDA206BD61F06EB860737
S315080008D01F2606FA07F18843D61F06EB860605FA91
S315080008E006F10843206310E0E06AA2F10D0606EB64
S315080008F086071F2606FA07F18843A2F10D0606EBBE
S31508000900860605FA06F10843E062F0BD816841F003
S3150800091008018160704721B1826842F4A0028260B2
S3150800092003E0826822F4A00282607047816841F081
S31508000930040181607047000010B500F03FFC1048C4
S3150800094000684FF47A71B0FBF1F4601EB0F1807F55
S3150800095000D30FE0601E4FF0E02148610F214FF0F1
S31508000960FF3001F087F800204FF0E021886107206A
S31508000970086100BF0021481E01F07CF810BD000088
S315080009809000002010B500BF012000F023F940B107
S315080009900548006810B1044908688047012000F03E
S315080009A013F900BF10BD0000B800002010B500BF45
S315080009B04FF4806000F00EF948B13048806A10B1F3
S315080009C02E49886A80474FF4806000F0FDF800BF22
S315080009D000BF4FF4006000F0FDF848B12748C06A30
S315080009E010B12649C86A80474FF4006000F0ECF859
S315080009F000BF00BF4FF4805000F0ECF848B11F4824
S31508000A00006B10B11D49086B80474FF4805000F009
S31508000A10DBF800BF00BF4FF4005000F0DBF848B128
S31508000A201648406B10B11549486B80474FF4005083
S31508000A3000F0CAF800BF00BF4FF4804000F0CAF8C3
S31508000A4048B10E48806B10B10C49886B80474FF44B
S31508000A50804000F0B9F800BF00BF4FF4004000F036
S31508000A60B9F848B10548C06B10B10449C86B80474E
S31508000A704FF4004000F0A8F800BF10BDB8000020F1
S31508000A8010B500BF022000F0A5F840B1054840683F
S31508000A9010B1044948688047022000F095F800BF65
S31508000AA010BD0000B800002010B500BF042000F0FB
S31508000AB091F840B10548806810B1044988688047B4
S31508000AC0042000F081F800BF10BD0000B800002027
S31508000AD010B500BF082000F07DF840B10548C06891
S31508000AE010B10449C8688047082000F06DF800BFB7
S31508000AF010BD0000B800002010B500BF102000F09F
S31508000B0069F840B10548006910B104490869804789
S31508000B10102000F059F800BF10BD0000B8000020F2
S31508000B2010B500BF202000F055F840B125484069AF
S31508000B3010B1244948698047202000F045F800BFD5
S31508000B4000BF402000F046F840B11E48806910B149
S31508000B501C4988698047402000F036F800BF00BF6E
S31508000B60802000F037F840B11648C06910B1154921
S31508000B70C8698047802000F027F800BF00BF4FF4FF
S31508000B80807000F027F848B10E48006A10B10D4988
S31508000B90086A80474FF4807000F016F800BF00BF5F
S31508000BA04FF4007000F016F848B10648406A10B1D4
S31508000BB00449486A80474FF4007000F005F800BF02
S31508000BC010BD0000B8000020014908607047000009
S31508000BD014040140014600200022074B1B6803EA63
S31508000BE00102054B14331B680B4013B10AB10120EF
S31508000BF000E0002070470000000401402DE9F041A4
S31508000C00024600250026002000230024002791F82C
S31508000C1003C00CF00F0591F803C00CF0100CBCF1E2
S31508000C20000F03D091F802C04CEA050591F800C000
S31508000C30BCF1000F31D0146800202BE04FF0010CF6
S31508000C400CFA00F3B1F800C00CEA03069E4220D164
S31508000C5083004FF00F0C0CFA03F7BC4305FA03FCAC
S31508000C604CEA040491F803C0BCF1280F06D14FF0F2
S31508000C70010C0CFA00FCC2F814C00AE091F803C093
S31508000C80BCF1480F05D14FF0010C0CFA00FCC2F874
S31508000C9010C0401C0828D1D31460B1F800C0BCF1BC
S31508000CA0FF0F34DD546800202EE000F1080C4FF0E9
S31508000CB0010808FA0CF3B1F800C00CEA03069E42D4
S31508000CC021D183004FF00F0C0CFA03F7BC4305FA49
S31508000CD003FC4CEA040491F803C0BCF1280F05D1C3
S31508000CE000F1080C08FA0CF8C2F8148091F803C051
S31508000CF0BCF1480F07D100F1080C4FF0010808FABB
S31508000D000CF8C2F81080401C0828CED35460BDE801
S31508000D10F081000070B5002100230F22C47804B3C7
S31508000D20154C246804F4E064C4F5E064210AC1F1B2
S31508000D300403CA40447804FA03F184781440214332
S31508000D4009010E4C0678A155047804F01F05012404
S31508000D50AC4005786D11AD0005F1E025C5F80041F8
S31508000D6009E0047804F01F050124AC40044D067818
S31508000D70761145F8264070BD0CED00E000E400E071
S31508000D8080E100E002490143024A11607047000011
S31508000D900000FA050CED00E001460020034A506801
S31508000DA020F440400843506070470000001002409D
S31508000DB029B1064AD2690243044BDA6104E0034AC0
S31508000DC0D2698243014BDA61704700000010024085
S31508000DD029B1064A92690243044B9A6104E0034A20
S31508000DE092698243014B9A617047000000100240E5
S31508000DF029B1064AD2680243044BDA6004E0034A82
S31508000E00D2688243014BDA60704700000010024046
S31508000E1030B500210022002400232D4D6D6805F011
S31508000E200C0121B1042905D0082923D105E0294D53
S31508000E30056022E0274D05601FE0254D6D6805F425
S31508000E407012234D6D6805F48034022505EB924235
S31508000E501CB9214D554305600BE01D4D6D6805F421
S31508000E6000351DB11C4D5543056002E0194D55432B
S31508000E70056002E0174D056000BF00BF144D6D68A0
S31508000E8005F0F0010909154D6B5C0568DD40456004
S31508000E900F4D6D6805F4E061090A104D6B5C4568F5
S31508000EA0DD4085600A4D6D6805F46051C90A0B4D31
S31508000EB06B5C4568DD40C560054D6D6805F44041CD
S31508000EC0890B074D6B5CC568B5FBF3F5056130BD4D
S31508000ED00010024000127A0000093D007C00002044
S31508000EE08C00002010B501460022002300204A117C
S31508000EF0012A02D1094C236806E0022A02D1074CCE
S31508000F00236A01E0054C636A01F01F02012494403C
S31508000F101C400CB1012000E0002010BD001002406A
S31508000F200248406800F00C007047000000100240BC
S31508000F3001460020034A506820F0F000084350603C
S31508000F4070470000001002401149096821F48031F9
S31508000F500F4A11601146096821F480211160B0F525
S31508000F60803F03D0B0F5802F0ED106E00849096806
S31508000F7041F48031064A116007E00549096841F4E1
S31508000F80A021034A116000E000BF00BF70470000BF
S31508000F900010024001460020034A506820F4E06031
S31508000FA008435060704700000010024001460020C8
S31508000FB0034A506820F4605040EAC1005060704708
S31508000FC000100240014908667047000000004242CE
S31508000FD002460020044B586820F47C1042EA0103BC
S31508000FE01843014B58607047001002400146002024
S31508000FF0034A506820F00300084350607047000019
S315080010000010024038B5002000900024002500BFDB
S315080010103120FFF767FF05460098401C00900098AE
S31508001020B0F5A06F01D0002DF2D03120FFF75AFF9E
S3150800103008B1012400E00024204638BD10B500F0B0
S3150800104001F810BD0CB500200190009033480068E7
S3150800105040F480303149086000BF3048006800F429
S31508001060003000900198401C0190009818B901982A
S31508001070B0F5A06FF1D12948006800F4003010B12E
S315080010800120009001E0002000900098012843D13B
S315080010902348006840F010002149086008460068A7
S315080010A020F0030008600846006840F00200086067
S315080010B01A48406819494860084640684860084622
S315080010C0406840F4806048600846406820F47C1018
S315080010D048600846406840F4E810486008460068DA
S315080010E040F08070086000BF0C48006800F000708F
S315080010F00028F9D00948406820F0030007494860ED
S315080011000846406840F00200486000BF034840684F
S3150800111000F00C000828F9D10CBD000000100240B0
S315080011200020024010B504461E4850F834001E49F7
S3150800113008600020FFF75AFF00BFFFF7F1FE0028FE
S31508001140FBD1FFF7F5FE4FF48060FFF723FF002081
S31508001150FFF72CFF0020FFF735FF4FF48030FFF72D
S31508001160F3FEFFF74FFF0F4800EBC40041684FF44A
S315080011708030FFF72DFF0120FFF724FF00BF39203D
S31508001180FFF7B0FE0028FAD00220FFF72FFF00BFB6
S31508001190FFF7C6FE0828FBD101210846FFF718FE0F
S315080011A010BD0000040000209000002002480068DE
S315080011B0401C0149086070470000002010B5002156
S315080011C000200022214B5B6803F00C0121B10429A1
S315080011D006D0082928D107E01D4B1E4C236027E0BE
S315080011E01B4B1C4C236023E0184B5B6803F4701000
S315080011F0164B5B6803F48032022303EB904022B956
S31508001200154B4343134C23600DE0104B5B6803F406
S31508001210003323B1104B43430E4C236003E00C4BC1
S3150800122043430C4C236003E0094B0A4C236000BF80
S3150800123000BF064B5B68C3F30313084CE15C054B20
S315080012401B68CB40034C236010BD00000010024011
S3150800125000127A009000002000093D00940000204A
S3150800126010B51348006840F00100114908600846A7
S315080012704068104908400E494860084600680E490B
S3150800128008400B4908600846006820F4802008607A
S315080012900846406820F4FE0048604FF41F00886046
S315080012A0FFF7CCFE4FF000600449086010BD00004F
S315080012B0001002400000FFF8FFFFF6FE08ED00E010
S315080012C010B500BF0121084800F05BF848B107488F
S315080012D0006810B10549086880470121024800F0F6
S315080012E04DF800BF10BD0000002C0140F80000209A
S315080012F010B500BF0121880700F043F848B1064839
S31508001300406810B10449486880470121880700F001
S3150800131035F800BF10BD0000F800002010B500BF6A
S315080013200121084800F02DF848B10748806810B137
S315080013300549886880470121024800F01FF800BF68
S3150800134010BD000000040040F800002010B500BFE2
S315080013500121084800F015F848B10748C06810B1DF
S315080013600549C86880470121024800F007F800BF10
S3150800137010BD000000080040F8000020CA430282A1
S31508001380704730B50246002000230024158A05EA76
S315080013900103958905EA010413B10CB1012000E0A7
S315080013A0002030BD10B5024800F0AAF910BD0000B3
S315080013B01801002010B5024800F0A2F910BD00007F
S315080013C0B401002010B5024800F09AF910BD0000DB
S315080013D05002002010B50022002340F66A14A142EC
S315080013E000D100BF0A1201249440A3B2DC43048052
S315080013F010BD21B1828942F40052828104E08289BB
S315080014004DF6FF731A408281704702460020B1F5F7
S31508001410007F00D100BF13880B400BB1012000E00C
S315080014200020704770B502460024002300250020DE
S3150800143040F66A16B14200D100BFC1F3421501F069
S315080014401F03012606FA03F3012D02D196893340BC
S3150800145006E0022D02D1168A334001E0968A33400F
S315080014600C12012606FA04F41688344013B10CB19E
S31508001470012000E0002070BDF0B5034600240026D8
S315080014800025002040F66A17B94200D100BF184669
S31508001490C1F3421401F01F06012707FA06F5012CCD
S315080014A001D10C3004E0022C01D1103000E01430D8
S315080014B01AB107682F43076002E00768AF43076061
S315080014C0F0BD00002DE9F04786B005460E4600241B
S315080014D0A24600BFA1460027B08900B100BF2F462B
S315080014E02C8A4CF6FF700440F08804432C82AC89A1
S315080014F04EF6F3100440B0883189084371890843D1
S315080015000443AC81AC8A4FF6FF400440B0890443DB
S31508001510AC8201A8FFF77CFC1F48874202D1DDF8A0
S3150800152010A001E0DDF80CA0A88900F4004040B145
S315080015300AEBCA0000EB0A1031684900B0FBF1F863
S3150800154007E00AEBCA0000EB0A1031688900B0FB15
S31508001550F1F86420B8FBF0F004012009642101FBCE
S315080015601089A88900F4004040B1322000EBC90078
S31508001570B0FBF1F000F00700044308E0322000EB6E
S3150800158009106421B0FBF1F000F00F0004432C8130
S3150800159006B0BDE8F087000000380140014688889B
S315080015A0C0F308007047C1F30802828070472DE92E
S315080015B0F04107460C460025002608E0384600F0AC
S315080015C03FF80544052000F09BFF701CC6B2A642F2
S315080015D0F4DBB5FBF4F080B2BDE8F08110B50A2162
S315080015E00120FFF7E4FF0446224604A1094800F05B
S315080015F0D3F94FF47A7000F083FF10BD4144435F7E
S3150800160050696E204144432056616C2069733A251F
S31508001610640D0A001801002010B54FF4165105484C
S3150800162000F097F804A1034800F0B6F900F022F894
S3150800163010BD00001801002068656C6C6F00000082
S3150800164010B504460723012221460948FFF702F987
S3150800165001210748FFF75FF900BF02210448FFF799
S31508001660BDF80028F9D00248FFF7B4F810BD00000D
S315080016700024014000B587B001214FF40170FFF73F
S31508001680A7FB4FF40040FFF787FB0220ADF80400E4
S3150800169000208DF8070001A91748FFF7AFFA174889
S315080016A0FFF760F8002002908DF80C008DF80D0009
S315080016B04FF4602004900020059001208DF8180052
S315080016C002A90E48FFF79EF801210C48FFF73FF8DC
S315080016D00A48FFF71BF900BF0848FFF788F80028F3
S315080016E0FAD10648FFF722F900BF0448FFF768F861
S315080016F00028FAD107B000BD0008014000240140C7
S3150800170070B5044640F225512069FFF78BFEF8B103
S315080017102069FFF743FFC6B2218B491C88B2C1175F
S3150800172000EB5161C911A0EBC1118DB2608BA842C3
S3150800173004D0218B04F11C0046542583606908B146
S315080017406069804740F225512069FFF743FE00BFD4
S3150800175070BD70B504460D4600222946204600F0A5
S3150800176001F870BDF8B504460D4616460320012358
S31508001770324629460090204600F002F8F8BD0000DF
S315080017802DE9F04F87B004468A4691469B4657494D
S31508001790206988420BD1012144F20400FFF718FBA7
S315080017A04FF400767700524D4FF025084DE0514929
S315080017B0206988420DD101214804FFF7F9FA012171
S315080017C00420FFF705FB04260827494D4FF0260895
S315080017D03BE04949206988420ED101218804FFF778
S315080017E0E7FA01210820FFF7F3FA4FF4806677003D
S315080017F0424D4FF0270828E04149206988420ED11A
S315080018000121C804FFF7D4FA01211020FFF7E0FAF6
S315080018104FF4806677003B4D4FF0340815E03A499F
S315080018202069884211D101210805FFF7C1FA012173
S315080018301020FFF7CDFA01212020FFF7C9FA4FF44F
S31508001840805604272F4D4FF03408ADF81860032052
S315080018508DF81A0018208DF81B0006A92846FFF7F0
S31508001860CDF9ADF8187004208DF81B0026492069BB
S31508001870884204D106A92548FFF7C0F903E006A95E
S315080018802846FFF7BBF98DF804808DF805B0109847
S315080018908DF8060001208DF8070001A8FFF73AFA2F
S315080018A0CDF808A009F47040ADF80C0009F4706092
S315080018B0ADF8100009F0F0000002ADF80E000020A7
S315080018C0ADF814000C20ADF8120002A92069FFF744
S315080018D0F9FD012240F225512069FFF7CDFD0121CE
S315080018E02069FFF786FD07B0BDE8F08F0038014094
S315080018F0000801400044004000480040000C014038
S31508001900004C004000100140005000400014014007
S3150800191070B504460D4600BF80212069FFF775FDA6
S315080019200028F9D029462069FFF73DFE012070BD41
S3150800193000BF094A02600022426000BF074A0260EF
S315080019404FF47A72826000BF054A02600161002284
S315080019504261428302837047B4250008C8250008FF
S315080019609025000870B504460D4620682946426849
S315080019702046904770BD70B505460C46002606E021
S3150800198014F8011B2868026828469047761C2078B8
S315080019900028F5D1304670BD0FB430B5A1B0044665
S315080019A026A80090802101A8009B259A00F04CF8F3
S315080019B005460020009001A92046FFF7D3FF2846D8
S315080019C021B030BC5DF814FB10B5064C046000BFAE
S315080019D0054C046080F8543080F8551080F856207D
S315080019E010BD0000FC250008EC250008054901602B
S315080019F0002180F8551080F8561000BF00BF00BFC0
S31508001A0070470000EC250008016070472DE9F04199
S31508001A1004460D4616461F46DDF81880204600F097
S31508001A200DF804460448206025716671A77184F88C
S31508001A3007802046BDE8F0810C26000801490160B0
S31508001A4070470000182600087CB5044600201D468D
S31508001A50164600290BD0491ECDE90041044B6A46BB
S31508001A602946304600F0AAF9009A002111707CBD7B
S31508001A70EB24000810B5002804DB0A07130E054AF4
S31508001A80135406E00A07140E034A00F00F031B1F3F
S31508001A90D45410BD00E400E018ED00E00020FEF785
S31508001AA0ABBD000030B528B1144C031F00202168D7
S31508001AB00A4605E0084630BD9A4203D810465268E1
S31508001AC0002AF9D1002800D041680BD00468A3EB9E
S31508001AD00005A54204D11B681C440346046002E0C5
S31508001AE0436000E023603AB11C68D51AA54203D1C9
S31508001AF015682C441C6052685A6030BDAC00002042
S31508001B002DE9F04782460F4C10480D4E0E4F001B2C
S31508001B104FF0000820F007054FF001090022114692
S31508001B20504600F0F9FC002802D1306810B10020B8
S31508001B30BDE8F0873C60C4E90058C6F80090EDE7B8
S31508001B40B0000020D4040020AC000020D0060020FD
S31508001B5002E008C8121F08C1002AFAD17047704768
S31508001B60002001E001C1121F002AFBD170470000C6
S31508001B7008B5002003460246014600900148FFF7D3
S31508001B8045FF08BDA400002000B50A490A48FFF72A
S31508001B90CFFE0A490A48FFF7CBFE0A490A48FFF76B
S31508001BA0C7FE0A490A48FFF7C3FE0A490A48FFF76B
S31508001BB0BFFE00BD00380140180100200044004067
S31508001BC0B40100200048004050020020004C0040AC
S31508001BD0EC020020005000408803002000B50649AA
S31508001BE00648FFF711FF06490648FFF70DFF0649A5
S31508001BF00648FFF709FF00BD003001402404002015
S31508001C000038004040040020003C00405C040020EE
S31508001C1010B50023172216210448FFF7D5FE0446FF
S31508001C20034A0449FEF7E4FA10BD000078040020D0
S31508001C3000000008ED1900082DE9FF5F82B00021B9
S31508001C40DDE90430020DDDF840B0034318D044F650
S31508001C501050A2F2FF3242431514119801281FD0E2
S31508001C60A5EB0B00401C5FEA000A4FF000064E4F3A
S31508001C70DFF83891B046504615D5CAF1000413E08E
S31508001C80119801244AA3012801D16FEA0B01029891
S31508001C90119AC0E90031C0E9024206B0BDE8F09FDA
S31508001CA0CBF10000DFE704460021404A491842EB21
S31508001CB00450CDE9001012E0E00707D032463B4653
S31508001CC040464946FEF752FB8046894632463B4621
S31508001CD010461946FEF74AFB06460F466410002CC6
S31508001CE0EAD1DDE90401DDE90023BAF1000F06DADD
S31508001CF0FEF73CFB42464B46FEF738FB05E0FEF78F
S31508001D00A7FB42464B46FEF7A3FB04460E460022B7
S31508001D10284BFEF70DFC03D84FF0FF30014607E0CD
S31508001D200022254B20463146FEF779FAFEF7E3FCFA
S31508001D30102409E0002C0ADB0A220023FEF7F6F934
S31508001D40039B30321A55641E50EA0102F2D1641C14
S31508001D50039AC4F111031444119A012A03D00122EB
S31508001D6008430DD10AE0084304D000204FF0110BB8
S31508001D70119072E7A3EB0B056D1E0DE05B4504DDC4
S31508001D804FF0000205F1010504E003DA4FF0000206
S31508001D90A5F10105002AECD002981199C0E9023193
S31508001DA0C0E9004579E70000000014400000F03F54
S31508001DB0300000000000F0430000E03F2DE9FF4F2F
S31508001DC095B09B468946064600250FE2252877D119
S31508001DD000242746F84A0121059400E0044316F832
S31508001DE0013F203B01FA03F01042F7D130782A2848
S31508001DF011D06FF02F033078A0F13002092A16D8D7
S31508001E00059A44F0020402EB820203EB42021044F4
S31508001E10761C0590EFE759F8042B0592002A03DA99
S31508001E20504244F40054059044F00204761C30787D
S31508001E302E2816D116F8010F44F004042A280DD0CE
S31508001E406FF02F023078A0F13003092B09D807EB81
S31508001E50870302EB4303C718761CF3E759F8047B9C
S31508001E60761C30786C280FD006DC4C2817D06828EA
S31508001E700DD06A2814D104E0742810D07A280FD11E
S31508001E800DE044F400140AE044F4801401E044F43C
S31508001E9040147278824202D104F58014761C761CAE
S31508001EA0307866280BD013DC582877D009DC002850
S31508001EB075D04528F6D04628F4D047281AD19DE192
S31508001EC018E0632835D0642879D0652812D195E1C1
S31508001ED0702873D008DC6728F1D069286FD06E287F
S31508001EE00DD06F2806D1B5E073282CD0752875D08B
S31508001EF0782874D05A46179990476D1C75E1C4F333
S31508001F000250022809D003280DD0D9F80010042859
S31508001F100DD00D6009F1040967E1D9F80010EA1738
S31508001F20C1E90052F6E7D9F800100D80F2E70D7006
S31508001F30F0E719F8041B8DF8001000208DF8010051
S31508001F40EA46012003E059F804AB4FF0FF30610779
S31508001F504FF0000102D40DE008F101018846B942AC
S31508001F600FDA8045F8DB1AF808100029F4D108E0E2
S31508001F7008F1010188468142FADB1AF8081000299F
S31508001F80F6D105985B46A0EB080721463846179A0E
S31508001F9000F094FA284400EB080507E04DE029E133
S31508001FA00DE01AF8010B5A4617999047B8F101083F
S31508001FB0F7D25B4621463846179A13E142E00A22D1
S31508001FC00092C4F302524FF0000A022A08D059F8C8
S31508001FD004CB032A4FEAEC710AD00DE029E02AE087
S31508001FE009F1070121F00702F2E802C1914609E06A
S31508001FF00FFA8CFC4FEAEC71042A03D14FFA8CFCD9
S315080020004FEAEC71002907DA0A460021DCF1000CD8
S3150800201061EB02012D2202E0220504D52B228DF860
S315080020200420012203E0E20701D02022F7E79046C8
S3150800203059E00A2102E010220DE010214FF0000AB3
S3150800204000910BE010224FF0000A44F00404082720
S31508002050009203E008224FF0000A0092C4F30252ED
S31508002060022A05D059F804CB0021032A08D009E032
S3150800207009F1070121F00702F2E802C1914605E0DD
S315080020801FFA8CFC042A01D10CF0FF0C4FF0000853
S31508002090220728D5702806D0009B83F0100353EA40
S315080020A00A0305D00EE040228DF80420012208E03C
S315080020B05CEA010206D030228DF804208DF805006E
S315080020C002229046009B83F0080353EA0A030AD1CA
S315080020D05CEA010201D1620705D530228DF8042099
S315080020E04FF001087F1E582804D034A003900EA88C
S315080020F002900DE036A0F9E753466046009AFEF7CF
S3150800210015F884460398825C0298401E0290027075
S315080021105CEA0100F0D1029806A9081A00F1200A23
S31508002120600702D524F4803400E00127574502DD14
S31508002130A7EB0A0000E0002000EB0A0100900598D2
S315080021404144401A0590E00306D45B462146179A97
S31508002150059800F0B3F90544002706E001A85A4699
S31508002160C05D179990476D1C7F1C4745F6DBE00359
S315080021700CD55B462146179A059800F09FF9054449
S3150800218004E030205A46179990476D1C0099481E5E
S3150800219000900029F5DC08E0029802995A46007872
S315080021A0491C0291179990476D1CBAF10001AAF1D2
S315080021B0010AF1DC65E100000928010030313233FB
S315080021C03435363738396162636465660000000065
S315080021D0303132333435363738394142434445464F
S315080021E00000000000F058F90544761C30780028F5
S315080021F07FF4ECAD19B02846BDE8F08F620700D42D
S31508002200062709F1070222F0070CFCE80223E1463B
S3150800221003F000485FEA080C02D00FF2702C0DE0BC
S315080022205FEA045C02D50FF2682C07E05FEAC47C1B
S3150800223002D00FF2602C01E0AFF2700C4FF0FF38BD
S3150800224023F00043CDF850C065280CD006DC45289D
S3150800225009D046281DD047283DD13DE0662818D02C
S3150800226067287ED138E00021112F01DB112000E01C
S31508002270781CCDE9000106A90EA8FFF7DDFCDDE90B
S315080022800F010E9A03910021009207F1010A0491A9
S315080022904DE04FF000400097CDE9011006A90EA8C1
S315080022A0FFF7CAFCDDE90F0203920E9B1199002283
S315080022B0DDF80CA00093049211B9791C00EB010A11
S315080022C0B7EB0A0004D4C0F1FF3007F1010A049005
S315080022D0AAEB0700019044E0012F00DA012700214C
S315080022E0112F01DD112000E03846CDE9000106A9CD
S315080022F00EA8FFF7A1FCDDE90F010E9A0391002154
S3150800230004910092BA4621070CD40399514500DA84
S315080023108A46BAF1010F05DD009AAAF10101515C5E
S31508002320302908D0B84202DA10F1040F06DA012182
S31508002330CDE9011015E0AAF10101E9E7002805DC5D
S31508002340049901440491AAEB000102E0411C51459D
S3150800235000DD8A460499401A401C01904FF000405F
S315080023600290200704D40198504501DBCDF804807B
S3150800237000208DF84F0002980DF14F07B0F1004F7D
S3150800238025D02B200E9002984FF0020800280CDA70
S31508002390404202902D200E9007E00A210298FEF78F
S315080023A0DFF83031029007F8011DB8F10001A8F1F5
S315080023B00108F2DC02980028EFD1791E0E98087001
S315080023C0307800F0200040F0450007F8020D12A80A
S315080023D0C01B00F107081498007800B1012000EB33
S315080023E00A01019801EBE07105984144401A401E24
S315080023F00590E00306D45B462146179A059800F037
S315080024005DF805441498007818B15A46179990470C
S315080024106D1CE00324D55B462146179A059800F003
S315080024204DF805441CE00498002807DBDDE90301A4
S31508002430884203DD0098405C179901E0179930201F
S315080024405A469047049805F10105401C04900198E6
S31508002450401E019004D12E205A46179990476D1CAC
S31508002460BAF10001AAF1010ADDDC05E017F8010B53
S315080024705A46179990476D1CB8F10001A8F1010852
S31508002480F4DC5B462146179A0598ABE62D0000005A
S315080024902B000000200000002DE9F041044600252D
S315080024A01E461746880404D405E039462020B0475E
S315080024B06D1C641EF9D52846BDE8F0812DE9F0416A
S315080024C0044600251E469046C80301D5302700E07D
S315080024D02027880404D505E041463846B0476D1CD8
S315080024E0641EF9D52846BDE8F0814A68002A06D058
S315080024F00A68531C0B6010704868401E4860704795
S31508002500044A1268111800BF024A12688A42FBD3AD
S3150800251070470000000000202DE9F0410B3020F044
S315080025200706104D19E02068B04215D3B0420AD903
S31508002530871B201DD4F80480FDF729FEA019C0E9E1
S315080025400078286004E060682860201DFDF71FFEFB
S31508002550201D2660BDE8F081251D2C68002CE2D1DF
S315080025600020F7E7AC0000204FF4A060FEF70AFC55
S315080025700720FEF7D7FDFEF7DFF9FFF74DF800BF96
S31508002580FFF72CF8FCE70000000000000000000040
S315080025901119000877190008000000000000000063
S315080025A0000000000000000000000000000000001D
S315080025B0000000009D1A00087719000800000000B6
S315080025C000000000000000009D1A000877190008A6
S315080025D0000000009D1A00089D1A00089D1A0008B0
S315080025E09D1A00080000000000000000000000001E
S315080025F00000000000000000000000009D1A00080E
S3150800260000000000000000000000000000000000BC
S3150800261000000000000000009D1A00084C26000873
S3150800262000000020B8000000501B0008042700081E
S31508002630B8000020180A0000601B00084DF5FFFFCF
S3150800264031F5FFFF99F5FFFFC9F5FFFF0000000010
S315080026500024F4000000000000366E0100000400AB
S315080026600048E80100000800005A620200000C0059
S31508002670006CDC0200001000007E56030000140007
S315080026800090D0030000180000A24A0400001C00B5
S3150800269000B4C4040000200000C63E050000240063
S315080026A000D8B8050000280000EA320600002C0011
S315080026B000FCAC0600003000000E270700003400BE
S315080026C00020A107000038000000000001020304F2
S315080026D001020304060708090204060800A24A04C0
S315080026E000000000000000000102030406070809B4
S315080026F000000000000000000000000000000000CC
S3090800270000000000C7
S705080000ED05
